:020000021000EC
:10F8000021E0A0E0B1E001C01D92A835B207E1F708
:10F81000CFEFD0E1DEBFCDBF11241FBE62C0813665
:10F8200010F087550895813410F087530895803380
:10F8300010F08053089580E008951F93CF93DF93D5
:10F840001F92CDB7DEB769830E940FFC182F698124
:10F85000862F0E940FFC90E1199F800D11240F90BC
:10F86000DF91CF911F91089524E0969587952A9571
:10F87000E1F79093900089B91BB888E18AB986E0D6
:10F88000809395000895CF93C82F8D3019F48AE0A6
:10F890000E9443FC5D9BFECFCCB9CF9108955F9B46
:10F8A000FECF8CB108958F708A3010F0895A01C054
:10F8B000805D0C9443FCCF93C82F82958F700E947B
:10F8C00053FC8C2FCF910C9453FCCF93DF93EC011E
:10F8D0008991882319F00E9443FCFACFDF91CF91E0
:10F8E0000895CF93DF9300D000D0CDB7DEB7F89462
:10F8F00083B1836083B91FBC81E08EBD84B7877FED
:10F9000084BF81B5886181BD11BC10920101109244
:10F91000000180E090E0DC0171E1089B0CC00196E1
:10F92000A11DB11D81302AE6920728E1A207B10589
:10F93000A0F361E001C060E01DBC1CBC08990BC0D5
:10F940000196A11DB11D81303AE6930738E1A30766
:10F95000B105A0F361E0713160F44CB55DB5209163
:10F96000000130910101240F351F309301012093D4
:10F970000001715019F0662381F261E016E0E12C7C
:10F98000F12C613071F41EBC1DBC1CBC83B18C7F9A
:10F9900083B91092900019B81AB810939500F70126
:10F9A0000995809100019091010144E09695879519
:10F9B0004A95E1F790930101809300018FE493EC65
:10F9C0000197F1F700C000008091000190910101C2
:10F9D0000E9434FC0E944FFC0E944FFC853599F632
:10F9E0000E944FFC853521F40E944FFC853511F0B3
:10F9F00061E0C7CF83E60E9443FC84E30E9443FC9E
:10FA000085E30E9443FC82E60E9443FC82E30E945D
:10FA100043FC80E20E9443FC86E70E9443FC82E3B1
:10FA20000E9443FC8EE20E9443FC89E30E9443FC57
:10FA300081E50E9443FC10922601CC24CA94DC2C60
:10FA40007601992493948DE00E9443FC8EE30E94FA
:10FA500043FC81E10E9443FC10E00E944FFCE12F37
:10FA6000F0E0EA5DFE4F80838535B9F3833021F401
:10FA700098E59093260103C01F5F8A3071F7E12F4C
:10FA8000F0E0DF01AB5DBE4F1C92EC5DFE4F80816C
:10FA90008D3009F4108283E10E9443FC86E291E0FC
:10FAA0000E9465FC10912601173651F018F41536A6
:10FAB00039F11BC21D3621F1103709F461C015C29E
:10FAC0008BE20E9443FC8DE00E9443FC81E10E9496
:10FAD00043FCEFE4F3EC3197F1F700C000001EBCEB
:10FAE0001DBC1CBC83B18C7F83B91092900019B8E7
:10FAF0001AB8F6E0F0939500E0E0F0E00995A3CFA6
:10FB000060912901809128010E941DFCA82E60911E
:10FB10002B0180912A010E941DFCB12CBA2CAA2431
:10FB2000A80EB11C809127018737A9F460912D019F
:10FB300080912C010E941DFC082F153631F4E199AB
:10FB4000FECF602FC5010E948BFF809126018D366C
:10FB500011F4F501008380912601853629F4C50151
:10FB60000E9479FF182F02C0F50110818BE20E94DC
:10FB700043FC8DE00E9443FC812F0E945BFC63CF1D
:10FB80008BE20E9443FC8DE00E9443FC10921F0117
:10FB900080912701853611F490921F01C0920301D4
:10FBA000D0920401E0920501F09206011092210129
:10FBB000109220011092230110922201109208014C
:10FBC000109202011092090181E10E9443FC10E0B1
:10FBD0000E944FFCA12FB0E0AA5DBE4F8C931F5F27
:10FBE0008A30B1F783E10E9443FCE12FF0E0EB5D46
:10FBF000FE4F108260912801809127010E941DFC18
:10FC0000B82E8093070160912A01809129010E94FA
:10FC10001DFC182F682E712C762C662460912C0107
:10FC200080912B010E941DFC680E711C60912E01B9
:10FC300080912D010E941DFC082F809325011B0D32
:10FC4000180F160D10930A01AB2DB0E01596AA0FF0
:10FC5000BB1F5D01FAE0AF1AB108AA5DBE4FF50106
:10FC6000EA5DFE4F6C9181850E941DFC882E809379
:10FC700024010230E1F46091300180912F010E9453
:10FC80001DFC90E0B82EAA246091320180913101D0
:10FC90000E941DFC9501280F311DC90130932301DD
:10FCA000209322018B0D810F80930A018CC00130BB
:10FCB00029F4009302010093090185C0011183C05A
:10FCC0008091030190910401A0910501B09106017A
:10FCD0008F3F9F4FAF4FBF4F59F4C301A0E0B0E03B
:10FCE0008093030190930401A0930501B093060152
:10FCF00090911F01998340900301509004016090FE
:10FD0000050170900601209122013091230114E039
:10FD1000220F331F1A95E1F720900A01E09120018C
:10FD2000F0912101FC83EB8390E0420E531E611C95
:10FD3000711C092F10E00A151B050CF03CC00A5D70
:10FD40001E4FF801628581859A830E941DFC382E22
:10FD5000F801648583850E941DFCA32DA80FA20DC8
:10FD60009A812981213039F4EB81FC81E55FFE4FD6
:10FD70003082818317C0282F30E0322F2227230DB5
:10FD8000311DB301A201EB81FC814E0F5F1F611D8C
:10FD9000711D81E00901FA0160935B0080936800A6
:10FDA000E89511249C5F2B813C812E5F3F4F3C8363
:10FDB0002B832A2EBECF2B813C81309321012093AF
:10FDC000200120920A0180910A01880D19F0909279
:10FDD000080185C08EE20E9443FC409120015091B1
:10FDE00021014F3F510519F010F090920901E09167
:10FDF0001F01E13011F4E0930901F0910901F130A4
:10FE000009F064C0009103011091040120910501E3
:10FE1000309106010F3F8FEF18072807380709F4C4
:10FE200055C0609122017091230180E090E0A4E030
:10FE3000660F771F881F991FAA95D1F7600F711F52
:10FE4000821F931F60930301709304018093050147
:10FE500090930601E13039F4E199FECF8BE091E017
:10FE60000E9481FF24C06115E8EF7E07E1E08E0764
:10FE7000910518F0F093080132C023E0FB01809354
:10FE80005B0020936800E8952091680020FDFCCF7E
:10FE900035E0FB0180935B0030936800E89580912A
:10FEA000680080FDFCCF81E180936800E8958AE2DC
:10FEB0000E9443FCC0920301D0920401E09205012C
:10FEC000F092060110922101109220018091080108
:10FED000811105C080910201882309F46FCE8091C1
:10FEE0000801811102C08BE201C08DE20E9443FC37
:10FEF000AACDE199FECF9FBB8EBBE09A99278DB327
:10FF00000895DC01CB0103C02D910E948CFF41506C
:10FF10005040D0F70895262FE199FECF9FBB8EBBAE
:10FF20002DBB0FB6F894E29AE19A0FBE01960895A0
:040000031000F800F1
:00000001FF
