:10F8000021E0A0E0B1E001C01D92A835B207E1F708
:10F81000CFEFD0E1DEBFCDBF11241FBE6BC081365C
:10F8200010F087550895813410F087530895803380
:10F8300010F08053089580E008951F93CF93DF93D5
:10F840001F92CDB7DEB769830E940F7C182F6981A4
:10F85000862F0E940F7C90E1199F800D11240F903C
:10F86000DF91CF911F91089524E0969587952A9571
:10F87000E1F79093CD008093CC001092C80088E10E
:10F880008093C90086E08093CA000895CF93C82F63
:10F890008D3019F48AE00E94467C8091C80085FF73
:10F8A000FCCFC093CE00CF9108958091C80087FF10
:10F8B000FCCF8091CE0008958F708A3010F0895A65
:10F8C00001C0805D0C94467CCF93C82F82958F70C9
:10F8D0000E945C7C8C2FCF910C945C7CCF93DF9347
:10F8E000EC018991882319F00E94467CFACFDF91C0
:10F8F000CF910895CF93DF9300D000D0CDB7DEB77E
:10F90000F8948BB18C608BB91092800081E0809369
:10F91000810084B7877F84BF809160008861809375
:10F92000600010926000109201011092000180E0CE
:10F9300090E0DC0171E14A9B0CC00196A11DB11D54
:10F9400081302AE6920728E1A207B105A0F361E021
:10F9500001C060E010928500109284004A990BC0AB
:10F960000196A11DB11D81303AE6930738E1A30746
:10F97000B105A0F361E0713170F4409184005091C1
:10F9800085002091000130910101240F351F309333
:10F99000010120930001715019F0662361F261E0CA
:10F9A00016E0E12CF12C613099F410928100109254
:10F9B0008500109284008BB1837F8BB91092CD00AB
:10F9C0001092CC001092C9001093CA00F70109955B
:10F9D000809100019091010144E0969587954A95A8
:10F9E000E1F790930101809300018FE493EC01977C
:10F9F000F1F700C0000080910001909101010E9488
:10FA0000347C0E94557C0E94557C853571F60E949D
:10FA1000557C853521F40E94557C853511F061E0D7
:10FA2000C2CF83E60E94467C84E30E94467C85E345
:10FA30000E94467C82E60E94467C82E30E94467CCD
:10FA400080E20E94467C86E70E94467C82E30E9418
:10FA5000467C8EE20E94467C89E30E94467C81E5DA
:10FA60000E94467C10922601A12CB12CCC24CA9471
:10FA7000DC2C7601552453948DE00E94467C8EE365
:10FA80000E94467C81E10E94467C10E00E94557CE9
:10FA9000E12FF0E0EA5DFE4F80838535B9F38330D6
:10FAA00021F498E59093260103C01F5F8A3071F717
:10FAB000E12FF0E0DF01AB5DBE4F1C92EC5DFE4F2D
:10FAC00080818D3009F4108283E10E94467C86E2B9
:10FAD00091E00E946E7C10912601173651F018F4C7
:10FAE000153659F10AC21D3641F1103709F465C0C7
:10FAF00004C28BE20E94467C8DE00E94467C81E13C
:10FB00000E94467CEFE4F3EC3197F1F700C000006F
:10FB10001092810010928500109284008BB1837F37
:10FB20008BB91092CD001092CC001092C900F6E073
:10FB3000F093CA00F50109959FCF6091290180914A
:10FB400028010E941D7C882E60912B0180912A0142
:10FB50000E941D7C912C982C8824880E911C8091E9
:10FB600027018737A9F460912D0180912C010E9413
:10FB70001D7C082F153631F4F999FECF602FC40192
:10FB80000E94937F809126018D3611F4F401008349
:10FB900080912601853629F4C4010E94817F182FA7
:10FBA00002C0F40110818BE20E94467C8DE00E942D
:10FBB000467C812F0E94647C5FCF8BE20E94467C52
:10FBC0008DE00E94467C10921F01809127018536AE
:10FBD00011F450921F01C0920301D0920401E092EF
:10FBE0000501F0920601109221011092200110925D
:10FBF000230110922201109208011092020110922A
:10FC0000090181E10E94467C10E00E94557CA12FF1
:10FC1000B0E0AA5DBE4F8C931F5F8A30B1F783E1DD
:10FC20000E94467CE12FF0E0EB5DFE4F1082609178
:10FC30002801809127010E941D7C982E8093070146
:10FC400060912A01809129010E941D7C182F682E45
:10FC5000712C762C662460912C0180912B010E94DE
:10FC60001D7C680E711C60912E0180912D010E94F7
:10FC70001D7C082F80932501190D180F160D109368
:10FC80000A01A92DB0E01596AA0FBB1F4D01FAE09D
:10FC90008F1A9108AA5DBE4FF401EA5DFE4F6C9188
:10FCA00081850E941D7C482E809324010230E1F45E
:10FCB0006091300180912F010E941D7C90E0982E70
:10FCC000882460913201809131010E941D7C940151
:10FCD000280F311DC9013093230120932201890D82
:10FCE000810F80930A017EC0013029F40093020144
:10FCF0000093090177C0011175C0809103019091B3
:10FD00000401A0910501B09106018F3F9F4FAF4FB5
:10FD1000BF4F59F4C301A0E0B0E08093030190937A
:10FD20000401A0930501B093060150911F0160905A
:10FD300022017090230114E0660C771C1A95E1F7FC
:10FD40008091030190910401680E791E30900A01A0
:10FD500020912001309121013C832B8390E0092FD9
:10FD600010E008151905B4F50A5D1E4FF80162850B
:10FD700081855A8399830E941D7C282EF801648511
:10FD800083850E941D7C622D680F630D5A819981C5
:10FD9000513039F4EB81FC81E55FFE4F2082818395
:10FDA00010C0282F30E0322F2227220D311DEB8189
:10FDB000FC81E60DF71D81E0090180935700E8956D
:10FDC00011249C5F2B813C812E5F3F4F3C832B8312
:10FDD000362EC5CF2B813C81309321012093200109
:10FDE00030920A0180910A01840D19F050920801A5
:10FDF0007EC08EE20E94467C4091200150912101FC
:10FE00004F3F510519F010F050920901E0911F0188
:10FE1000E13011F4E0930901F0910901F13009F0AA
:10FE20005DC0009103011091040120910501309102
:10FE300006010F3F8FEF18072807380709F44EC057
:10FE4000609122017091230180E090E0A4E0660FB0
:10FE5000771F881F991FAA95D1F7600F711F821F06
:10FE6000931F6093030170930401809305019093A5
:10FE70000601E13039F4F999FECF8BE091E00E9460
:10FE8000897F1DC06115E8EF7E078105910518F097
:10FE9000F09308012CC023E0FB0120935700E89564
:10FEA00007B600FCFDCF25E0FB0120935700E89545
:10FEB00007B600FCFDCF81E180935700E8958AE208
:10FEC0000E94467CC0920301D0920401E092050199
:10FED000F0920601109221011092200180910801F8
:10FEE000811105C080910201882309F484CE80919C
:10FEF0000801811102C08BE201C08DE20E94467CA4
:10FF0000BBCDF999FECF92BD81BDF89A992780B5F6
:10FF10000895DC01CB0103C02D910E94947F4150D4
:10FF20005040D0F70895262FF999FECF92BD81BD9C
:10FF300020BD0FB6F894FA9AF99A0FBE019608956B
:040000030000F80001
:00000001FF
