:020000022000DC
:100000000D94F4000D9408010D9408010D9408015D
:100010000D9408010D9408010D9408010D94080138
:100020000D9408010D9408010D9408010D94080128
:100030000D9408010D9408010D9408010D94080118
:100040000D9408010D9408010D9408010D94080108
:100050000D9408010D9408010D9408010D940801F8
:100060000D9408010D9408010D9408010D940801E8
:100070000D9408010D9408010D9408010D940801D8
:100080000D9408010D9490010D9408010D94080140
:100090000D9408010D9408010D9408010D940801B8
:1000A0000D9408010D9408010D9408010D940801A8
:1000B0000D9408010D9408010D9408010D94080198
:1000C0000D9408010D9408010D9408010D94080188
:1000D0000D9408010D9408010D9408010D94080178
:1000E0000D9408010D9408010D9408010D94080168
:1000F0000D9408010D9408010D9408010D94080158
:100100000D9408010D9408010D9408010D94080147
:100110000D9408010D9408010D9408010D94080137
:100120000D9408010D9408010D9408010D94080127
:100130000D9408010D9408010D9408010D94080117
:100140000D9408010D9408010D9408010D94080107
:100150000D9408010D9408010D9408010D940801F7
:100160000D9408010D9408010D9408010D940801E7
:100170000D9408010D9408010D9408010D940801D7
:100180000D9408010D9408010D9408010D940801C7
:100190000D9408010D9408010D9408010D940801B7
:1001A0000D9408010D9408010D9408010D940801A7
:1001B0000D9408010D9408010D9408010D94080197
:1001C0000D9408010D9408010D9408010D94080187
:1001D0000D9408010D9408010D9408010D94080177
:1001E0000D9408010D94080111241FBECFEFCDBF5F
:1001F000DFE3DEBF01E00CBF20E2A0E0B0E201C01F
:100200001D92AF35B207E1F70F94D1020D940007AC
:100210000D940000813610F087550895813410F058
:1002200087530895803310F08053089580E0089537
:100230001F93CF93DF931F92CDB7DEB769830F94DF
:100240000A01182F6981862F0F940A0190E1199FE6
:10025000800D11240F90DF91CF911F9108959B0184
:10026000AC012F5F3F4F4F4F5F4F60EA76E881E070
:1002700090E00F94770623E096958795779567959C
:100280002A95D1F7605A7648814091092AE638E1EB
:1002900040E050E00F94870621503109E0EAF9E090
:1002A0002683832F806C878313828581887F836078
:1002B00085838CE184830895CF93C82F8D3019F402
:1002C0008AE00F945C018091A10985FFFCCFC09367
:1002D000A009CF9108958091A10987FFFCCF80915B
:1002E000A00908958F708A3010F0895A01C0805D8E
:1002F0000D945C01CF93C82F82958F700F9472017B
:100300008C2FCF910D947201CF93DF93EC018991E3
:10031000882319F00F945C01FACFDF91CF910895F3
:100320001F920F920FB60F9211240BB60F928F935C
:10033000AF93BF93EF93FF93E0ECF1E08585837F6C
:10034000858780915C208093480080915D20A0EAA1
:10035000B0E08C9380915B2012968C9380915E200C
:10036000858780915A208FBFFF91EF91BF91AF9108
:100370008F910F900BBE0F900FBE0F901F9018958E
:10038000E0EAF0E08281806498ED94BF8283089572
:10039000E0EAF0E082818F7B98ED94BF828308953C
:1003A000E8E4F0E0808180935C201082E0EAF0E0F5
:1003B000808180935D20828180935B208281887F11
:1003C000846082838FB780935A207894E0ECF1E0C8
:1003D000858580935E200895CF93DF9300D000D071
:1003E000CDB7DEB74D835E8369837A838B839C832D
:1003F0000F94D0014D815E8169817A818B819C81CE
:100400002696CDBFDEBFDF91CF910D946F02CF93C3
:10041000DF9300D01F92CDB7DEB769837A838B83D9
:100420009C830F94D00169817A818B819C81249671
:10043000CDBFDEBFDF91CF910D9469020F94D00143
:100440000D94B402CF93DF9300D01F92CDB7DEB7E7
:1004500069837A838B839C830F94D00169817A812D
:100460008B819C812496CDBFDEBFDF91CF910D940F
:10047000870208953BB78BBFFB0186913BBF089570
:100480003BB78BBFFB01879196913BBF089542E03C
:1004900083C041E081C08093C00188278093C1015F
:1004A0008093C20147E068D0CB0108958093C401D6
:1004B00048E062C08091D00108953BB748E10D94B7
:1004C00015073BB74AE10D9415073BB740E20D9481
:1004D00015073BB78BBFCB0142E20D9415073BB725
:1004E0008BBFCB010A0143E20D9415073BB76BBFED
:1004F000FA0119BEDC0140E04093CA0150E0879147
:1005000097918D939D935A95D1F73BBF08953BB733
:100510008BBFCB0144E20D9415073BB78BBFCB01DA
:1005200045E20D9415073BB746E20D9415073BB71E
:100530008BBFCB014AE20D9415073BB78BBFCB01B4
:100540004CE20D9415073BB78BBFCB014DE20D94E8
:10055000150748E311C049E30FC028ED209334008C
:1005600021E02093CC0108952091CF0127FDFCCFFD
:1005700022272093CA0108954093CA0128ED31E053
:10058000209334003093CB016091C4017091C50178
:100590008091C60199270895FC014093CA01849176
:1005A0000895CF93DF931F92CDB7DEB70F94C001AC
:1005B000F8941092520085E08093500088E0809378
:1005C00055008091500080618093500080915100CF
:1005D00084FFFCCF38ED34BF84E08093400088E195
:1005E000809372068093730688E08093610682E0B0
:1005F000809361068093660621E0209300081092A4
:10060000010810920208109203081092040885E075
:100610008093430088EB9BE080930C0490930D043F
:1006200020930004109208041092090434BF209310
:10063000800010920020109201201092022010924F
:10064000032051E18091680682FF06C08091030477
:1006500081FFF8CF41E001C040E0109220081092E5
:1006600021088091680682FD05C08091030481FF06
:10067000F8CF41E05131C0F4209120083091210899
:100680008091002090910120A0910220B091032040
:10069000820F931FA11DB11D809300209093012014
:1006A000A0930220B0930320515019F0442351F23B
:1006B00041E003E038EDF32E11E0413061F5109296
:1006C0000008109201081092200810922108109240
:1006D0007206109273061092A3091092A409009357
:1006E000A5091092A6091092A7090F94C8011092AB
:1006F00000041CBEF4BE1092400000008091500027
:100700008F7E8093500010925500109350001CBEB5
:10071000E0E0F0E019958091002090910120A091F7
:100720000220B091032024E0B695A7959795879570
:100730002A95D1F78093002090930120A093022066
:10074000B09303208FE493EC0197F1F700C0000011
:1007500060910020709101208091022090910320EF
:100760000F942F010F946B010F946B01853509F0E5
:10077000A6CF0F946B01853521F40F946B0185355D
:1007800011F041E09ACF0F946B018535E1F382E0DF
:100790008093650683E60F945C0184E30F945C010B
:1007A00085E30F945C0182E60F945C0182E30F9471
:1007B0005C0180E20F945C0186E70F945C0182E3A8
:1007C0000F945C018EE20F945C0189E30F945C014D
:1007D00081E50F945C011092282012E068E5B62EA6
:1007E00073E0A72EE8ED9E2E88248394CC24CA942F
:1007F000DC2C760101E0109365068DE00F945C011E
:100800008EE30F945C0181E10F945C018091A1095A
:1008100080648093A1098091A10986FFFCCF109389
:100820006606712C0F946B01E72DF0E0E85DFF4D3B
:1008300080838535B9F3833019F4B092282003C042
:1008400073948A3079F7E72DF0E0DF01A95DBF4DA1
:100850001C92EA5DFF4D80818D3009F41082109367
:10086000650683E10F945C0188E290E20F948401B5
:1008700090912820973661F020F4953609F446C00F
:1008800032C29D3609F442C0903709F483C02BC2AE
:100890008BE20F945C018DE00F945C0181E10F9479
:1008A0005C01EFE4F3EC3197F1F700C00000109227
:1008B000000810920108109220081092210810934D
:1008C000660610927206109273061092A309109297
:1008D000A409A092A5091092A6091092A7090F9445
:1008E000C801109200041CBE94BE1092400000008B
:1008F000809150008F7E809350001092550080921E
:1009000050001CBEE0E0F0E0199575CF60912B20FF
:1009100080912A2099830F941801482E60912D20F0
:1009200080912C200F941801512C542C4424480EF3
:10093000511C809129208737C1F460912F2080912C
:100940002E200F941801782E9981953641F48091CC
:10095000CF0187FDFCCF672DC2010F94DD0680918A
:1009600028208D3611F4F20170828091282085367E
:1009700029F4C2010F94C306782E02C0F2017080E0
:100980008BE20F945C018DE00F945C01872D0F9436
:100990007A0131CF8BE20F945C018DE00F945C0102
:1009A0001092212080912920853611F40093212076
:1009B000C0920520D0920620E0920720F0920820F5
:1009C0001092222010922320109224201092252091
:1009D00010920A201092042010920B2081E10F94B3
:1009E0005C018091A10980648093A1098091A10993
:1009F00086FFFCCF10936606712C0F946B01A72D18
:100A0000B0E0A85DBF4D8C9373948A30B1F710931A
:100A1000650683E10F945C01E72DF0E0E95DFF4D91
:100A2000108260912A20809129200F941801682E4D
:100A30008093092060912C2080912B200F94180125
:100A4000782E482E512C542C442460912E208091D5
:100A50002D200F941801480E511C60913020809178
:100A60002F200F941801982F80932720760C780E52
:100A7000740C70920C20E62DF0E0EE0FFF1FEE5C80
:100A8000FF4DDF01119760818C9199830F941801BC
:100A90008093262099819230D9F460913220809100
:100AA00031200F94180190E0582E44246091342096
:100AB000809133200F9418019201280F311D20934B
:100AC000242030932520250D270D20930C207EC057
:100AD000913029F49093042090930B2077C09111CA
:100AE00075C08091052090910620A0910720B091BB
:100AF00008208F3F9F4FAF4FBF4F59F4C201A0E076
:100B0000B0E08093052090930620A0930720B09337
:100B10000820712C272D30E08091092090E0880F6B
:100B2000991F281739070CF051C0C901885D9F4DE6
:100B30001C01FC01628581850F941801682E50907C
:100B40000C20F101648583850F941801962D980F70
:100B5000950D90930C20909121202091222030918E
:100B60002320913031F4F901E35FFF4D60828183EE
:100B700021C0482F50E0542F4427460D511D60914D
:100B80000520709106208091072090910820620F27
:100B9000731F811D911D2091242030912520B4E0E8
:100BA000220F331FBA95E1F7620F731F811D911D4C
:100BB0000F94EC0180912220909123200296809343
:100BC000222090932320F4E07F0EA4CF8091262052
:100BD00090910C20890F19F000930A207EC08EE2BC
:100BE0000F945C014091222050912320411522E076
:100BF000520710F000930B2020912120213011F496
:100C000020930B2030910B20313009F05DC04090D3
:100C100005205090062060900720709008208FEFEC
:100C2000481658066806780609F44EC060912420DC
:100C30007091252080E090E0E4E0660F771F881F28
:100C4000991FEA95D1F7640D751D861D971D609358
:100C50000520709306208093072090930820213070
:100C600049F42091CF0127FDFCCF8DE090E20F9455
:100C7000D3061BC061157105E2E08E07910518F0DF
:100C800030930A202AC00F9407020F941E0260912D
:100C900005207091062080910720909108200F94E4
:100CA00022020F941E020F9439028AE20F945C0113
:100CB000C0920520D0920620E0920720F0920820F2
:100CC000109222201092232080910A20811105C0C9
:100CD00080910420882309F47BCE80910A20811121
:100CE00002C08BE201C08DE20F945C0184CDDB0178
:100CF0008F939F930F94A906BF91AF91A29F800DF0
:100D0000911DA39F900DB29F900D11240895A1E213
:100D10001A2EAA1BBB1BFD010DC0AA1FBB1FEE1F75
:100D2000FF1FA217B307E407F50720F0A21BB30BC0
:100D3000E40BF50B661F771F881F991F1A9469F73C
:100D400060957095809590959B01AC01BD01CF0198
:100D500008950F94B406A59F900DB49F900DA49F85
:100D6000800D911D11240895A29FB001B39FC00171
:100D7000A39F700D811D1124911DB29F700D811DC7
:100D80001124911D089503D0808199270895E0ECE6
:100D9000F1E0378537FDFDCF348538603487FC01BD
:100DA000E050F04F0895DC01CB0103C02D910F946A
:100DB000DE0641505040D0F70895262FE0ECF1E0D8
:100DC000378537FDFDCF3485377F3487378531FF51
:100DD00009C036E3328738ED34BF31E033873785D9
:100DE00037FDFDCF33E332878083918312822483E2
:100DF00025E3228728ED31E024BF3387019608954B
:040E0000F894FFCF94
:100E0400EE27FF2719BEDC0143E24093CA0150E0FC
:100E14002DE90D901D9020933400E89532965A9553
:100E2400C1F7112408950D942107FC014093CA01D0
:100E34002DE920933400E89511243BBF0895FC016B
:100E44004093CA014F935F936F9364E06093A20051
:100E54004CE051E0509348000DE900933400E895CC
:100E64004093CD01889511243BBF6F915F914F91C1
:020E74000895DF
:0400000320000000D9
:00000001FF
