:1078000020E0A0E6B0E001C01D92A83BB207E1F77E
:10781000CFE5D8E0DEBFCDBF11241FBE60C08136EA
:1078200010F087550895813410F087530895803300
:1078300010F08053089580E008951F93CF93DF9355
:107840001F92CDB7DEB769830E940F3C182F698164
:10785000862F0E940F3C90E1199F800D11240F90FC
:10786000DF91CF911F91089524E0969587952A95F1
:10787000E1F790BD89B91BB888E18AB986E880BD77
:107880000895CF93C82F8D3019F48AE00E94413CAF
:107890005D9BFECFCCB9CF9108955F9BFECF8CB19D
:1078A00008958F708A3010F0895A01C0805D0C9461
:1078B000413CCF93C82F82958F700E94513C8C2FF2
:1078C000CF910C94513CCF93DF93EC0189918823A5
:1078D00019F00E94413CFACFDF91CF910895CF93E8
:1078E000DF9300D000D0CDB7DEB7F89482B38360C9
:1078F00082BBB89AC0981FBC81E08EBD84B7877FD9
:1079000084BF81B5886181BD11BC10926100109265
:10791000600080E090E0DC0171E1809B0CC001968A
:10792000A11DB11D81302AE6920728E1A207B10509
:10793000A0F361E001C060E01DBC1CBC80990BC0DD
:107940000196A11DB11D81303AE6930738E1A307E6
:10795000B105A0F361E0713160F44CB55DB52091E3
:10796000600030916100240F351F30936100209337
:107970006000715019F0662381F261E016E8E12C95
:10798000F12C613061F41EBC1DBC1CBC82B38C7F29
:1079900082BB10BC19B81AB810BDF70109958091C7
:1079A00060009091610044E0969587954A95E1F7D3
:1079B00090936100809360008FE493EC0197F1F75E
:1079C00000C0000080916000909161000E94343CF2
:1079D0000E944D3C0E944D3C8535A9F60E944D3CCD
:1079E000853521F40E944D3C853511F061E0C9CF09
:1079F0000E944D3C8535E1F3C09A83E60E94413CEC
:107A000084E30E94413C85E30E94413C82E60E945F
:107A1000413C82E30E94413C80E20E94413C86E777
:107A20000E94413C82E30E94413C8EE20E94413C24
:107A300089E30E94413C81E50E94413C109286000E
:107A4000A12CB12CCC24CA94DC2C7601552453945F
:107A5000C09A8DE00E94413C8EE30E94413C81E14E
:107A60000E94413C5E9A5E9BFECFC09810E00E944F
:107A70004D3CE12FF0E0EA57FF4F80838535B9F3A5
:107A8000833021F498E59093860003C01F5F8A300D
:107A900071F7E12FF0E0DF01AB57BF4F1C92EC57BD
:107AA000FF4F80818D3009F41082C09A83E10E94DB
:107AB000413C86E890E00E94633C109186001736B6
:107AC00051F018F4153629F108C21D3611F110379E
:107AD00009F45FC002C28BE20E94413C8DE00E942B
:107AE000413C81E10E94413CEFE4F3EC3197F1F736
:107AF00000C000001EBC1DBC1CBCC09882B38C7FA3
:107B000082BB10BC19B81AB8F6E8F0BDF5010995AA
:107B10009FCF60918900809188000E941D3C882E33
:107B200060918B0080918A000E941D3C912C982CC2
:107B30008824880E911C809187008737A9F4609172
:107B40008D0080918C000E941D3C082F153631F469
:107B5000E199FECF602FC4010E94833F809186008F
:107B60008D3611F4F401008380918600853629F466
:107B7000C4010E94713F182F02C0F40110818BE2F2
:107B80000E94413C8DE00E94413C812F0E94593C63
:107B90005FCF8BE20E94413C8DE00E94413C1092FD
:107BA0007F0080918700853611F450927F00C0924B
:107BB0006300D0926400E0926500F092660010923B
:107BC0008100109280001092830010928200109227
:107BD0006800109262001092690081E10E94413CAD
:107BE0005E9A5E9BFECFC09810E00E944D3CA12F94
:107BF000B0E0AA57BF4F8C931F5F8A30B1F7C09A8D
:107C000083E10E94413CE12FF0E0EB57FF4F1082EF
:107C100060918800809187000E941D3C982E80937F
:107C2000670060918A00809189000E941D3C182F96
:107C3000682E712C762C662460918C0080918B00CC
:107C40000E941D3C680E711C60918E0080918D0019
:107C50000E941D3C082F80938500190D180F160DEA
:107C600010936A00A92DB0E01596AA0FBB1F4D0115
:107C7000FAE08F1A9108AA57BF4FF401EA57FF4F55
:107C80006C9181850E941D3C482E809384000230B7
:107C9000E1F46091900080918F000E941D3C90E083
:107CA000982E882460919200809191000E941D3C42
:107CB0009401280F311DC901309383002093820065
:107CC000890D810F80936A007EC0013029F40093F2
:107CD00062000093690077C0011175C08091630054
:107CE00090916400A0916500B09166008F3F9F4F16
:107CF000AF4FBF4F59F4C301A0E0B0E080936300E1
:107D000090936400A0936500B093660050917F004B
:107D1000609082007090830014E0660C771C1A95C6
:107D2000E1F78091630090916400680E791E3090B5
:107D30006A0020918000309181003C832B8390E089
:107D4000092F10E008151905B4F50A571F4FF8015F
:107D5000628581855A8399830E941D3C282EF801F3
:107D6000648583850E941D3C622D680F630D5A81D6
:107D70009981513039F4EB81FC81E559FF4F208224
:107D8000818310C0282F30E0322F2227220D311D91
:107D9000EB81FC81E60DF71D81E00901809357001E
:107DA000E89511249C5F2B813C812E5F3F4F3C83E3
:107DB0002B83362EC5CF2B813C81309381002093BD
:107DC000800030926A0080916A00840D19F0509210
:107DD00068007DC08EE20E94413C4091800050913D
:107DE00081004038510510F050926900E0917F0009
:107DF000E13011F4E0936900F0916900F13009F08D
:107E00005DC0009163001091640020916500309185
:107E100066000F3F8FEF18072807380709F44EC098
:107E2000609182007091830080E090E0A4E0660F92
:107E3000771F881F991FAA95D1F7600F711F821FA6
:107E4000931F609363007093640080936500909328
:107E50006600E13039F4E199FECF8BE690E00E94B4
:107E6000793F1DC06115E8E77E078105910518F08F
:107E7000F09368002CC023E0FB0120935700E895A5
:107E800007B600FCFDCF25E0FB0120935700E895E5
:107E900007B600FCFDCF81E180935700E8958AE2A8
:107EA0000E94413CC0926300D0926400E092650061
:107EB000F09266001092810010928000809168001C
:107EC000811105C080916200882309F480CE8091E1
:107ED0006800811102C08BE201C08DE20E94413C2A
:107EE000B7CDE199FECF9FBB8EBBE09A99278DB3AA
:107EF0000895DC01CB0103C02D910E94843F4150C5
:107F00005040D0F70895262FE199FECF9FBB8EBB3E
:107F10002DBB0FB6F894E29AE19A0FBE0196089530
:040000030000780081
:00000001FF
