:1018000020E0A0E6B0E001C01D92A83BB207E1F7DE
:10181000CFE5D4E0DEBFCDBF11241FBE59C0813655
:1018200010F087550895813410F087530895803360
:1018300010F08053089580E008951F93CF93DF93B5
:101840001F92CDB7DEB76983EADF182F6981862F33
:10185000E6DF90E1199F800D11240F90DF91CF9169
:101860001F91089524E0969587952A95E1F790BDFC
:1018700089B91BB888E18AB986E880BD0895CF93FD
:10188000C82F8D3011F48AE0FADF5D9BFECFCCB912
:10189000CF9108955F9BFECF8CB108958F708A30F1
:1018A00010F0895A01C0805DEACFCF93C82F82958E
:1018B0008F70F4DF8C2FCF91F1CFCF93DF93EC01BA
:1018C0008991882311F0DBDFFBCFDF91CF91089561
:1018D000CF93DF9300D000D0CDB7DEB7F89482B3BA
:1018E000836082BB8C9A94981FBC81E08EBD84B7C4
:1018F000877F84BF81B5886181BD11BC1092610072
:101900001092600080E090E0DC0171E1809B0CC0EF
:101910000196A11DB11D81302AE6920728E1A20798
:10192000B105A0F361E001C060E01DBC1CBC809962
:101930000BC00196A11DB11D81303AE6930738E135
:10194000A307B105A0F361E0713160F44CB55DB55A
:101950002091600030916100240F351F30936100A9
:1019600020936000715019F0662381F261E016E85F
:10197000E12CF12C613061F41EBC1DBC1CBC82B397
:101980008C7F82BB10BC19B81AB810BDF70109953D
:10199000809160009091610044E0969587954A950A
:1019A000E1F790936100809360008FE493EC0197DE
:1019B000F1F700C00000809160009091610052DF5B
:1019C00069DF68DF8535C1F665DF853519F462DFCB
:1019D000853511F061E0CECF5DDF8535E9F3949A6E
:1019E00083E64DDF84E34BDF85E349DF82E647DFB3
:1019F00082E345DF80E243DF86E741DF82E33FDFCA
:101A00008EE23DDF89E33BDF81E539DF109286001E
:101A1000A12CB12CCC24CA94DC2C760155245394EF
:101A2000949A8DE02CDF8EE32ADF81E128DF5E9A35
:101A30005E9BFECF949810E02DDFE12FF0E0EA5797
:101A4000FF4F80838535C1F3833021F498E590936F
:101A5000860003C01F5F8A3079F7E12FF0E0DF01D5
:101A6000AB57BF4F1C92EC57FF4F80818D3009F46C
:101A70001082949A83E103DF86E890E01EDF1091E4
:101A80008600173651F018F4153611F1ECC11D36E9
:101A9000F9F0103709F454C0E6C18BE2F0DE8DE0B6
:101AA000EEDE81E1ECDEEFE4F3EC3197F1F700C01C
:101AB00000001EBC1DBC1CBC949882B38C7F82BBF2
:101AC00010BC19B81AB8F6E8F0BDF5010995A8CF11
:101AD0006091890080918800B0DE882E60918B0033
:101AE00080918A00AADE912C982C8824880E911C63
:101AF00080918700873799F460918D0080918C00E8
:101B00009CDE082F153629F4E199FECF602FC40121
:101B1000BED1809186008D3611F4F401008380914E
:101B20008600853621F4C401A1D1182F02C0F4012A
:101B300010818BE2A4DE8DE0A2DE812FB6DE70CFB5
:101B40008BE29DDE8DE09BDE10927F00809187000E
:101B5000853611F450927F00C0926300D0926400E9
:101B6000E0926500F0926600109281001092800071
:101B7000109283001092820010926800109262000E
:101B80001092690081E17BDE5E9A5E9BFECF9498A5
:101B900010E080DEA12FB0E0AA57BF4F8C931F5FEB
:101BA0008A30B9F7949A83E16ADEE12FF0E0EB57CF
:101BB000FF4F108260918800809187003EDE982E52
:101BC0008093670060918A008091890036DE182F2B
:101BD000682E712C762C662460918C0080918B008D
:101BE0002CDE680E711C60918E0080918D0025DEC8
:101BF000082F80938500190D180F160D10936A0099
:101C0000A92DB0E01596AA0FBB1F4D01FAE08F1A5F
:101C10009108AA57BF4FF401EA57FF4F6C91818595
:101C20000CDE482E809384000230D1F46091900045
:101C300080918F0002DE90E0982E882460919200BF
:101C400080919100FADD9401280F311DC901309374
:101C5000830020938200890D810F80936A007CC0ED
:101C6000013029F4009362000093690075C00111EE
:101C700073C08091630090916400A0916500B09161
:101C800066008F3F9F4FAF4FBF4F59F4C301A0E095
:101C9000B0E08093630090936400A0936500B093DC
:101CA000660050917F00609082007090830014E085
:101CB000660C771C1A95E1F780916300909164009F
:101CC000680E791E30906A0020918000309181006A
:101CD0003C832B8390E0092F10E008151905A4F52B
:101CE0000A571F4FF801628581855A839983A5DDC4
:101CF000282EF80164858385A0DD622D680F630DB1
:101D00005A819981513039F4EB81FC81E559FF4FBB
:101D10002082818310C0282F30E0322F2227220D0D
:101D2000311DEB81FC81E60DF71D81E009018093F7
:101D30005700E89511249C5F2B813C812E5F3F4F1B
:101D40003C832B83362EC7CF2B813C81309381007F
:101D50002093800030926A0080916A00840D19F00F
:101D6000509268007AC08EE28ADD409180005091E6
:101D700081004034510510F050926900E0917F00DD
:101D8000E13011F4E0936900F0916900F13009F05D
:101D90005BC0009163001091640020916500309158
:101DA00066000F3F8FEF18072807380709F44CC06B
:101DB000609182007091830080E090E0A4E0660F63
:101DC000771F881F991FAA95D1F7600F711F821F77
:101DD000931F6093630070936400809365009093F9
:101DE0006600E13031F4E199FECF8BE690E046D019
:101DF0001DC06115E8E17E078105910518F0F0939B
:101E000068002BC023E0FB0120935700E89507B63C
:101E100000FCFDCF25E0FB0120935700E89507B6B5
:101E200000FCFDCF81E180935700E8958AE227DD31
:101E3000C0926300D0926400E0926500F092660068
:101E4000109281001092800080916800811105C07D
:101E500080916200882309F48FCE809168008111FF
:101E600002C08BE201C08DE20ADDDACDE199FECF3E
:101E70009FBB8EBBE09A99278DB30895DC01CB01FF
:101E800002C02D9105D041505040D8F70895262F1B
:101E9000E199FECF9FBB8EBB2DBB0FB6F894E29AA3
:081EA000E19A0FBE01960895BE
:0400000300001800E1
:00000001FF
