:020000021000EC
:100000000C94F4800C9406810C9406810C94068167
:100010000C9406810C9406810C9406810C94068144
:100020000C9406810C9406810C9406810C94068134
:100030000C9406810C9406810C9406810C94068124
:100040000C9406810C9406810C9406810C94068114
:100050000C9406810C9406810C9406810C94068104
:100060000C9406810C9406810C9406810C940681F4
:100070000C9406810C9406810C9406810C940681E4
:100080000C9406810C948E810C9406810C9406814C
:100090000C9406810C9406810C9406810C940681C4
:1000A0000C9406810C9406810C9406810C940681B4
:1000B0000C9406810C9406810C9406810C940681A4
:1000C0000C9406810C9406810C9406810C94068194
:1000D0000C9406810C9406810C9406810C94068184
:1000E0000C9406810C9406810C9406810C94068174
:1000F0000C9406810C9406810C9406810C94068164
:100100000C9406810C9406810C9406810C94068153
:100110000C9406810C9406810C9406810C94068143
:100120000C9406810C9406810C9406810C94068133
:100130000C9406810C9406810C9406810C94068123
:100140000C9406810C9406810C9406810C94068113
:100150000C9406810C9406810C9406810C94068103
:100160000C9406810C9406810C9406810C940681F3
:100170000C9406810C9406810C9406810C940681E3
:100180000C9406810C9406810C9406810C940681D3
:100190000C9406810C9406810C9406810C940681C3
:1001A0000C9406810C9406810C9406810C940681B3
:1001B0000C9406810C9406810C9406810C940681A3
:1001C0000C9406810C9406810C9406810C94068193
:1001D0000C9406810C9406810C9406810C94068183
:1001E0000C9406810C94068111241FBECFEFCDBF65
:1001F000DFE2DEBF20E2A0E0B0E201C01D92AF3539
:10020000B207E1F70E94D0820C94FD860C94008026
:10021000813610F087550895813410F08753089582
:10022000803310F08053089580E008951F93CF939A
:10023000DF931F92CDB7DEB769830E940881182F24
:100240006981862F0E94088190E1199F800D1124F9
:100250000F90DF91CF911F9108959B01AC012F5F0B
:100260003F4F4F4F5F4F60EA76E881E090E00E9499
:10027000748623E096958795779567952A95D1F7AB
:10028000605A7648814091092AE638E140E050E022
:100290000E94848621503109E0EAFBE02683832F07
:1002A000806C878313828581887F836085838CE15E
:1002B00084830895CF93C82F8D3019F48AE00E946B
:1002C0005A818091A10B85FFFCCFC093A00BCF91E9
:1002D00008958091A10B87FFFCCF8091A00B08951A
:1002E0008F708A3010F0895A01C0805D0C945A8159
:1002F000CF93C82F82958F700E9470818C2FCF91E1
:100300000C947081CF93DF93EC018991882319F0CD
:100310000E945A81FACFDF91CF9108951F920F92D8
:100320000FB60F9211240BB60F928F93AF93BF931A
:10033000EF93FF93E0ECF1E08585837F85878091E3
:100340005C208093480080915D20A0EAB0E08C930F
:1003500080915B2012968C9380915E20858780919E
:100360005A208FBFFF91EF91BF91AF918F910F9066
:100370000BBE0F900FBE0F901F901895E0EAF0E0B3
:100380008281806498ED94BF82830895E0EAF0E072
:1003900082818F7B98ED94BF82830895E8E4F0E03A
:1003A000808180935C201082E0EAF0E0808180937D
:1003B0005D20828180935B208281887F846082833C
:1003C0008FB780935A207894E0ECF1E08585809394
:1003D0005E200895CF93DF93CDB7DEB72697CDBFCC
:1003E000DEBF4D835E8369837A838B839C830E9407
:1003F000CE814D815E8169817A818B819C81269637
:10040000CDBFDEBFDF91CF910C946E82CF93DF938F
:1004100000D000D0CDB7DEB769837A838B839C830D
:100420000E94CE8169817A818B819C812496CDBF87
:10043000DEBFDF91CF910C9468820E94CE810C9434
:10044000B382CF93DF9300D000D0CDB7DEB76983FE
:100450007A838B839C830E94CE8169817A818B8190
:100460009C812496CDBFDEBFDF91CF910C94868214
:1004700008953BB78BBFFB0186913BBF08953BB707
:100480008BBFFB01879196913BBF089542E083C0EB
:1004900041E081C08093C00188278093C10180938F
:1004A000C20147E068D0CB0108958093C40148E0C1
:1004B00062C08091D00108953BB748E10C94128747
:1004C0003BB74AE10C9412873BB740E20C94128789
:1004D0003BB78BBFCB0142E20C9412873BB78BBF7B
:1004E000CB010A0143E20C9412873BB76BBFFA01C0
:1004F00019BEDC0140E04093CA0150E0879197911A
:100500008D939D935A95D1F73BBF08953BB78BBF11
:10051000CB0144E20C9412873BB78BBFCB0145E281
:100520000C9412873BB746E20C9412873BB78BBF03
:10053000CB014AE20C9412873BB78BBFCB014CE254
:100540000C9412873BB78BBFCB014DE20C94128702
:1005500048E311C049E30FC028ED2093340021E0A7
:100560002093CC0108952091CF0127FDFCCF2227B5
:100570002093CA0108954093CA0128ED31E02093E9
:1005800034003093CB016091C4017091C50180911A
:10059000C60199270895FC014093CA0184910895EA
:1005A000CF93DF931F92CDB7DEB70E94BE81F89440
:1005B0001092520085E08093500088E080935500AF
:1005C000809150008061809350008091510084FFA1
:1005D000FCCF38ED34BF84E08093400088E1809305
:1005E000B2068093B30688E08093A10682E08093F0
:1005F000A1068093A60621E020930008109201082E
:1006000010920208109203081092040885E080936B
:10061000430088EB9BE080930C0490930D0420939F
:100620000004109208041092090434BF2093800043
:1006300010920020109201201092022010920320AC
:1006400051E18091A80682FF06C08091030481FFDA
:10065000F8CF41E001C040E010922008109221083C
:100660008091A80682FD05C08091030481FFF8CF28
:1006700041E05131C0F4209120083091210880914F
:10068000002090910120A0910220B0910320820FC0
:10069000931FA11DB11D8093002090930120A09372
:1006A0000220B0930320515019F0442351F241E04D
:1006B00003E038EDF32E11E0413059F510920008B7
:1006C0001092010810922008109221081092B20690
:1006D0001092B3061092A30B1092A40B0093A50BDB
:1006E0001092A60B1092A70B0E94C68110920004D4
:1006F0001CBEF4BE109240000000809150008F7E1E
:10070000809350001092550010935000E0E0F0E00C
:1007100009958091002090910120A0910220B09134
:10072000032024E0B695A795979587952A95D1F74C
:100730008093002090930120A0930220B093032087
:100740008FE493EC0197F1F700C000006091002066
:100750007091012080910220909103200E942D81B0
:100760000E9469810E946981853509F0A7CF0E94A6
:100770006981853521F40E946981853511F041E058
:100780009BCF0E9469818535E1F382E08093A506C5
:1007900083E60E945A8184E30E945A8185E30E9485
:1007A0005A8182E60E945A8182E30E945A8180E245
:1007B0000E945A8186E70E945A8182E30E945A81F0
:1007C0008EE20E945A8189E30E945A8181E50E944B
:1007D0005A811092282012E068E5B62E73E0A72E09
:1007E000E8ED9E2E88248394CC24CA94DC2C7601D8
:1007F00001E01093A5068DE00E945A818EE30E94CD
:100800005A8181E10E945A818091A10B806480937A
:10081000A10B8091A10B86FFFCCF1093A606712C33
:100820000E946981E72DF0E0E85DFF4D808385350A
:10083000B9F3833019F4B092282003C073948A303E
:1008400079F7E72DF0E0DF01A95DBF4D1C92EA5D6D
:10085000FF4D80818D3009F410821093A50683E14D
:100860000E945A8188E290E20E9482819091282021
:10087000973661F020F4953609F445C031C29D36B3
:1008800009F441C0903709F482C02AC28BE20E9469
:100890005A818DE00E945A8181E10E945A81EFE4E1
:1008A000F3EC3197F1F700C00000109200081092AD
:1008B000010810922008109221081093A6061092A9
:1008C000B2061092B3061092A30B1092A40BA09242
:1008D000A50B1092A60B1092A70B0E94C681109236
:1008E00000041CBE94BE1092400000008091500095
:1008F0008F7E809350001092550080925000E0E06F
:10090000F0E0099576CF60912B2080912A20998381
:100910000E941681482E60912D2080912C200E94EB
:100920001681512C542C4424480E511C80912920AE
:100930008737C1F460912F2080912E200E9416816C
:10094000782E9981953641F48091CF0187FDFCCFB7
:10095000672DC2010E94DA86809128208D3611F41D
:10096000F201708280912820853629F4C2010E940C
:10097000C086782E02C0F20170808BE20E945A81FC
:100980008DE00E945A81872D0E94788132CF8BE2C0
:100990000E945A818DE00E945A81109221208091FC
:1009A0002920853611F400932120C0920520D09291
:1009B0000620E0920720F092082010922220109248
:1009C0002320109224201092252010920A201092A9
:1009D000042010920B2081E10E945A818091A10B8A
:1009E00080648093A10B8091A10B86FFFCCF1093B4
:1009F000A606712C0E946981A72DB0E0A85DBF4DAD
:100A00008C9373948A30B1F71093A50683E10E940A
:100A10005A81E72DF0E0E95DFF4D108260912A20B8
:100A2000809129200E941681682E80930920609170
:100A30002C2080912B200E941681782E482E512C3C
:100A4000542C442460912E2080912D200E941681E8
:100A5000480E511C6091302080912F200E941681F9
:100A6000982F80932720760C780E740C70920C20AF
:100A7000E62DF0E0EE0FFF1FEE5CFF4DDF0111975A
:100A800060818C9199830E941681809326209981A0
:100A90009230D9F460913220809131200E941681E9
:100AA00090E0582E442460913420809133200E949D
:100AB00016819201280F311D209324203093252088
:100AC000250D270D20930C207EC0913029F49093A2
:100AD000042090930B2077C0911175C08091052060
:100AE00090910620A0910720B09108208F3F9F4F42
:100AF000AF4FBF4F59F4C201A0E0B0E08093052092
:100B000090930620A0930720B0930820712C272DE6
:100B100030E08091092090E0880F991F281739074D
:100B20000CF051C0C901885D9F4D1C01FC0162851C
:100B300081850E941681682E50900C20F1016485F9
:100B400083850E941681962D980F950D90930C2009
:100B5000909121202091222030912320913031F456
:100B6000F901E35FFF4D6082818321C0482F50E08F
:100B7000542F4427460D511D609105207091062089
:100B80008091072090910820620F731F811D911D95
:100B90002091242030912520B4E0220F331FBA95F4
:100BA000E1F7620F731F811D911D0E94EA81809100
:100BB000222090912320029680932220909323203C
:100BC000F4E07F0EA4CF8091262090910C20890F15
:100BD00019F000930A207EC08EE20E945A81409153
:100BE0002220509123204F3F510519F010F000931F
:100BF0000B2020912120213011F420930B203091E3
:100C00000B20313009F05DC0409005205090062047
:100C100060900720709008208FEF481658066806ED
:100C2000780609F44EC0609124207091252080E060
:100C300090E0E4E0660F771F881F991FEA95D1F7CF
:100C4000640D751D861D971D609305207093062009
:100C50008093072090930820213049F42091CF0100
:100C600027FDFCCF8DE090E20E94D0861BC061156D
:100C70007105E1E08E07910518F030930A202AC033
:100C80000E9406820E941D826091052070910620BC
:100C900080910720909108200E9421820E941D824D
:100CA0000E9438828AE20E945A81C0920520D09226
:100CB0000620E0920720F092082010922220109245
:100CC000232080910A20811105C08091042088236F
:100CD00009F47BCE80910A20811102C08BE201C011
:100CE0008DE20E945A8185CDDB018F939F930E94F4
:100CF000A686BF91AF91A29F800D911DA39F900DDD
:100D0000B29F900D11240895A1E21A2EAA1BBB1BBD
:100D1000FD010DC0AA1FBB1FEE1FFF1FA217B307C7
:100D2000E407F50720F0A21BB30BE40BF50B661FDD
:100D3000771F881F991F1A9469F7609570958095A1
:100D400090959B01AC01BD01CF0108950E94B18631
:100D5000A59F900DB49F900DA49F800D911D11240F
:100D60000895A29FB001B39FC001A39F700D811D84
:100D70001124911DB29F700D811D1124911D0895A4
:100D800003D0808199270895E0ECF1E0378537FDA5
:100D9000FDCF348538603487FC01E050F04F089572
:100DA000DC01CB0103C02D910E94DB8641505040F5
:100DB000D0F70895262FE0ECF1E0378537FDFDCF21
:100DC0003485377F3487378531FF09C036E3328772
:100DD00038ED34BF31E03387378537FDFDCF33E35E
:100DE0003287808391831282248325E3228728ED32
:0E0DF00031E024BF338701960895F894FFCFB9
:100DFE00EE27FF2719BEDC0143E24093CA0150E8FB
:100E0E002DE90D901D9020933400E89532965A9559
:100E1E00C1F7112408950C941E87FC014093CA015A
:100E2E002DE920933400E89511243BBF0895FC0171
:100E3E004093CA014F935F936F9364E06093A20057
:100E4E004CE051E0509348000DE900933400E895D2
:100E5E004093CD01889511243BBF6F915F914F91C7
:020E6E000895E5
:0400000310000000E9
:00000001FF
