:020000021000EC
:10F8000022E0A0E0B2E001C01D92A835B207E1F706
:10F81000CFEFD1E4DEBFCDBF11241FBE6BC0813658
:10F8200010F087550895813410F087530895803380
:10F8300010F08053089580E008951F93CF93DF93D5
:10F840001F92CDB7DEB769830E940FFC182F698124
:10F85000862F0E940FFC90E1199F800D11240F90BC
:10F86000DF91CF911F91089524E0969587952A9571
:10F87000E1F79093C5008093C4001092C00088E126
:10F880008093C10086E08093C2000895CF93C82F73
:10F890008D3019F48AE00E9446FC8091C00085FFFB
:10F8A000FCCFC093C600CF9108958091C00087FF20
:10F8B000FCCF8091C60008958F708A3010F0895A6D
:10F8C00001C0805D0C9446FCCF93C82F82958F7049
:10F8D0000E945CFC8C2FCF910C945CFCCF93DF9347
:10F8E000EC018991882319F00E9446FCFACFDF9140
:10F8F000CF910895CF93DF9300D000D0CDB7DEB77E
:10F90000F8948EB183608EB91092800081E080936C
:10F91000810084B7877F84BF809160008861809375
:10F92000600086E480936000109201021092000251
:10F9300051E1609B06C08091600087FFFACF41E0F3
:10F9400001C040E01092850010928400609905C0CB
:10F950008091600087FFFACF41E0513170F420912F
:10F960008400309185008091000290910102820F05
:10F97000931F9093010280930002515019F0442389
:10F98000C1F241E080916000886180936000109234
:10F99000600016E0E12CF12C413099F410928100C6
:10F9A00010928500109284008EB18C7F8EB91092D7
:10F9B000C5001092C4001092C1001093C200F7015C
:10F9C0000995809100029091010244E096958795F7
:10F9D0004A95E1F790930102809300028FE493EC43
:10F9E0000197F1F700C000008091000290910102A0
:10F9F0000E9434FC0E9455FC0E9455FC853571F62E
:10FA00000E9455FC853521F40E9455FC853511F086
:10FA100041E0C2CF83E60E9446FC84E30E9446FC9C
:10FA200085E30E9446FC82E60E9446FC82E30E9437
:10FA300046FC80E20E9446FC86E70E9446FC82E388
:10FA40000E9446FC8EE20E9446FC89E30E9446FC2E
:10FA500081E50E9446FC10922602CC24CA94DC2C3C
:10FA60007601992493948DE00E9446FC8EE30E94D7
:10FA700046FC81E10E9446FC10E00E9455FCE12F0B
:10FA8000F0E0EA5DFD4F80838535B9F3833021F4E2
:10FA900098E59093260203C01F5F8A3071F7E12F2B
:10FAA000F0E0DF01AB5DBD4F1C92EC5DFD4F80814E
:10FAB0008D3009F4108283E10E9446FC86E292E0D8
:10FAC0000E946EFC10912602173651F018F415367C
:10FAD00061F11EC21D3649F1103709F466C018C223
:10FAE0008BE20E9446FC8DE00E9446FC81E10E9470
:10FAF00046FCEFE4F3EC3197F1F700C00000109200
:10FB0000810010928500109284008EB18C7F8EB996
:10FB10001092C5001092C4001092C100F6E0F0935C
:10FB2000C200E0E0F0E009959ECF6091290280914B
:10FB300028020E941DFCA82E60912B0280912A02AF
:10FB40000E941DFCB12CBA2CAA24A80EB11C8091D5
:10FB500027028737A9F460912D0280912C020E9420
:10FB60001DFC082F153631F4F999FECF602FC50121
:10FB70000E949EFF809126028D3611F4F5010083CC
:10FB800080912602853629F4C5010E948CFF182F2A
:10FB900002C0F50110818BE20E9446FC8DE00E94BC
:10FBA00046FC812F0E9464FC5ECF8BE20E9446FCE3
:10FBB0008DE00E9446FC10921F028091270285363C
:10FBC00011F490921F02C0920302D0920402E092BC
:10FBD0000502F09206021092210210922002109269
:10FBE0002302109222021092080210920202109236
:10FBF000090281E10E9446FC10E00E9455FCA12F01
:10FC0000B0E0AA5DBD4F8C931F5F8A30B1F783E1EE
:10FC10000E9446FCE12FF0E0EB5DFD4F1082609109
:10FC20002802809127020E941DFCB82E80930702B3
:10FC300060912A02809129020E941DFC182F682ED3
:10FC4000712C762C662460912C0280912B020E94EC
:10FC50001DFC680E711C60912E0280912D020E9485
:10FC60001DFC082F809325021B0D180F160D1093F5
:10FC70000A02AB2DB0E01596AA0FBB1F5D01FAE09A
:10FC8000AF1AB108AA5DBD4FF501EA5DFD4F6C9159
:10FC900081850E941DFC882E809324020230E1F4AD
:10FCA0006091300280912F020E941DFC90E0B82EDE
:10FCB000AA2460913202809131020E941DFC9501BC
:10FCC000280F311DC90130932302209322028B0D8E
:10FCD000810F80930A028CC0013029F40093020244
:10FCE0000093090285C0011183C0809103029091A5
:10FCF0000402A0910502B09106028F3F9F4FAF4FC3
:10FD0000BF4F59F4C301A0E0B0E080930302909389
:10FD10000402A0930502B093060290911F029983FA
:10FD20004090030250900402609005027090060219
:10FD3000209122023091230214E0220F331F1A95E2
:10FD4000E1F720900A02E0912002F0912102FC8369
:10FD5000EB8390E0420E531E611C711C092F10E0D2
:10FD60000A151B050CF03CC00A5D1D4FF8016285A9
:10FD700081859A830E941DFC382EF8016485838555
:10FD80000E941DFCA32DA80FA20D9A81298121306C
:10FD900039F4EB81FC81E55FFD4F3082818317C030
:10FDA000282F30E0322F2227230D311DB301A2016D
:10FDB000EB81FC814E0F5F1F611D711D81E0090108
:10FDC000FA0160935B0080935700E89511249C5FD3
:10FDD0002B813C812E5F3F4F3C832B832A2EBECF4D
:10FDE0002B813C81309321022093200220920A0231
:10FDF00080910A02880D19F09092080283C08EE269
:10FE00000E9446FC40912002509121024F3F510533
:10FE100019F010F090920902E0911F02E13011F404
:10FE2000E0930902F0910902F13009F062C00091FB
:10FE300003021091040220910502309106020F3F47
:10FE40008FEF18072807380709F453C06091220282
:10FE50007091230280E090E0A4E0660F771F881F76
:10FE6000991FAA95D1F7600F711F821F931F60938E
:10FE70000302709304028093050290930602E1301E
:10FE800039F4F999FECF8BE092E00E9494FF22C0F2
:10FE90006115E8EF7E07E1E08E07910518F0F09319
:10FEA000080230C023E0FB0180935B0020935700E1
:10FEB000E89507B600FCFDCF35E0FB0180935B00C1
:10FEC00030935700E89507B600FCFDCF81E18093A1
:10FED0005700E8958AE20E9446FCC0920302D09245
:10FEE0000402E0920502F0920602109221021092A2
:10FEF000200280910802811105C0809102028823AE
:10FF000009F471CE80910802811102C08BE201C018
:10FF10008DE20E9446FCA7CDF999FECF92BD81BD2E
:10FF2000F89A992780B50895DC01CB0103C02D9183
:10FF30000E949FFF41505040D0F70895262FF99915
:10FF4000FECF1FBA92BD81BD20BD0FB6F894FA9ABC
:08FF5000F99A0FBE0196089515
:040000031000F800F1
:00000001FF
