:108000000C94BC400C94CE400C94CE400C94CE40CA
:108010000C94CE400C94CE400C94CE400C94CE40A8
:108020000C94CE400C94CE400C94CE400C94CE4098
:108030000C94CE400C94CE400C94CE400C94CE4088
:108040000C94CE400C94CE400C94CE400C94CE4078
:108050000C94CE400C94CE400C94CE400C94CE4068
:108060000C94CE400C94CE400C94CE400C94CE4058
:108070000C94CE400C94CE400C94CE400C94CE4048
:108080000C94CE400C94CE400C94CE400C94CE4038
:108090000C94CE400C94CE400C94CE400C94CE4028
:1080A0000C94CE400C94CE400C94CE400C94CE4018
:1080B0000C94CE400C94CE400C94CE400C94CE4008
:1080C0000C94CE400C94CE400C94CE400C94CE40F8
:1080D0000C94CE400C94CE400C94CE400C94CE40E8
:1080E0000C94CE400C94CE400C94CE400C94CE40D8
:1080F0000C94CE400C94CE400C94CE400C94CE40C8
:108100000C94CE400C94CE400C94CE400C94CE40B7
:108110000C94CE400C94CE400C94CE400C94CE40A7
:108120000C94CE400C94CE400C94CE400C94CE4097
:108130000C94CE400C94CE400C94CE400C94CE4087
:108140000C94CE400C94CE400C94CE400C94CE4077
:108150000C94CE400C94CE400C94CE400C94CE4067
:108160000C94CE400C94CE400C94CE400C94CE4057
:108170000C94CE400C94CE4011241FBECFEFCDBF47
:10818000DFE2DEBF20E2A0E0B0E201C01D92AA352E
:10819000B207E1F70E94F6410C94EF450C940040C1
:1081A000813610F087550895813410F08753089573
:1081B000803310F08053089580E008951F93CF938B
:1081C000DF931F92CDB7DEB769830E94D040182F8E
:1081D0006981862F0E94D04090E1199F800D112463
:1081E0000F90DF91CF911F9108959B01AC012F5FFC
:1081F0003F4F4F4F5F4F60EA76E881E090E00E948A
:10820000664523E096958795779567952A95D1F7EA
:10821000605A7648814091092AE638E140E050E012
:108220000E94764521503109E0EBF8E02683832F48
:10823000806C878313828581887F836085838CE14E
:1082400084830895CF93C82F8D3019F48AE00E945B
:1082500022418091B10885FFFCCFC093B008CF9137
:1082600008958091B10887FFFCCF8091B0080895F0
:108270008F708A3010F0895A01C0805D0C942241C1
:10828000CF93C82F82958F700E9438418C2FCF9149
:108290000C943841CF93DF93EC018991882319F036
:1082A0000E942241FACFDF91CF9108950C9494411E
:1082B0000C948E410C94D9410C94AC4108953BB779
:1082C0008BBFFB0186913BBF08953BB78BBFFB0182
:1082D000879196913BBF089542E083C041E081C001
:1082E0008093C00188278093C1018093C20147E039
:1082F00068D0CB0108958093C40148E062C08091AA
:10830000D00108953BB748E10C9404463BB74AE1DD
:108310000C9404463BB740E20C9404463BB78BBF39
:10832000CB0142E20C9404463BB78BBFCB010A0160
:1083300043E20C9404463BB76BBFFA0119BEDC0163
:1083400040E04093CA0150E0879197918D939D93AF
:108350005A95D1F73BBF08953BB78BBFCB0144E2A1
:108360000C9404463BB78BBFCB0145E20C9404460A
:108370003BB746E20C9404463BB78BBFCB014AE2C5
:108380000C9404463BB78BBFCB014CE20C940446E3
:108390003BB78BBFCB014DE20C94044648E311C0C0
:1083A00049E30FC028ED2093340021E02093CC0155
:1083B00008952091CF0127FDFCCF22272093CA01E9
:1083C00008954093CA0128ED31E0209334003093A2
:1083D000CB016091C4017091C5018091C6019927BC
:1083E0000895FC014093CA0184910895CF93DF93CF
:1083F0001F92CDB7DEB7F8941092520085E08093BB
:10840000500088E0809355008091500080618093F7
:1084100050008091510084FFFCCF38ED34BF84E0E0
:108420008093400088E1809356068093570680E849
:108430008093410621E020930008109201081092D9
:108440000208109203081092040885E0809343000C
:1084500088EB9BE080930C0490930D042093000420
:10846000109208041092090434BF209380001092E7
:10847000002010920120109202201092032051E15E
:108480008091480686FF06C08091030481FFF8CFE3
:1084900041E001C040E01092200810922108809134
:1084A000480686FD05C08091030481FFF8CF41E0B6
:1084B0005131C0F420912008309121088091002092
:1084C00090910120A0910220B0910320820F931F70
:1084D000A11DB11D8093002090930120A093022044
:1084E000B0930320515019F0442351F241E003E0CE
:1084F000F8EDFF2E11E0413049F51092000810927E
:10850000010810922008109221081092560610922D
:1085100057061092B3081092B4080093B508109251
:10852000B6081092B708109200041CBEF4BE109258
:1085300040000000809150008F7E80935000109288
:10854000550010935000E0E0F0E009958091002084
:1085500090910120A0910220B0910320E4E0B69513
:10856000A79597958795EA95D1F7809300209093EA
:108570000120A0930220B09303208FE493EC019795
:10858000F1F700C0000060910020709101208091FF
:108590000220909103200E94F5400E9431410E94E8
:1085A0003141853509F0A9CF0E943141853521F44B
:1085B0000E943141853511F041E09DCF83E60E9454
:1085C000224184E30E94224185E30E94224182E607
:1085D0000E94224182E30E94224180E20E942241C5
:1085E00086E70E94224182E30E9422418EE20E949D
:1085F000224189E30E94224181E50E94224110929A
:10860000282048E5342E53E0B52E68EDA62E992497
:108610009394CC24CA94DC2C760111E08DE00E9466
:1086200022418EE30E94224181E10E94224100E02A
:108630000E943141E02FF0E0E85DFF4D80838535F9
:10864000B9F3833019F43092282003C00F5F8A30C9
:1086500079F7E02FF0E0DF01A95DBF4D1C92EA5DE4
:10866000FF4D80818D3009F4108283E10E94224108
:1086700088E290E20E944A4100912820073659F092
:1086800020F4053609F440C01DC20D36E9F100376B
:1086900009F47CC017C28BE20E9422418DE00E9447
:1086A000224181E10E942241EFE4F3EC3197F1F79E
:1086B00000C00000109200081092010810922008DB
:1086C0001092210810925606109257061092B30885
:1086D0001092B408B092B5081092B6081092B7087C
:1086E000109200041CBEA4BE1092400000008091B5
:1086F00050008F7E80935000109255009092500051
:10870000E0E0F0E009958ACF60912B2080912A204B
:108710000E94DE40682E60912D2080912C200E94C6
:10872000DE40712C762C6624680E711C8091292005
:108730008737B9F460912F2080912E200E94DE406F
:10874000882E053641F48091CF0187FDFCCF682D3E
:10875000C3010E94CC45809128208D3611F4F3018D
:10876000808280912820853629F4C3010E94B24579
:10877000082F02C0F30100818BE20E9422418DE0AC
:108780000E942241802F0E94404148CF8BE20E94EC
:1087900022418DE00E9422411092212080912920C7
:1087A000853611F410932120C0920520D092062026
:1087B000E0920720F09208201092222010922320AD
:1087C000109224201092252010920A20109204204A
:1087D00010920B2081E10E94224100E00E94314171
:1087E000A02FB0E0A85DBF4D8C930F5F8A30B1F72A
:1087F00083E10E942241E02FF0E0E95DFF4D10820D
:1088000060912A20809129200E94DE40782E80935A
:10881000092060912C2080912B200E94DE40882E20
:10882000482E512C542C442460912E2080912D20D0
:108830000E94DE40480E511C6091302080912F2014
:108840000E94DE40982F80932720870C880E840C8E
:1088500080920C20E72DF0E0EE0FFF1FEE5CFF4D45
:10886000DF01119760818C9199830E94DE40809393
:10887000262099819230D9F4609132208091312064
:108880000E94DE4090E0782E662460913420809132
:1088900033200E94DE409301280F311D20932420B5
:1088A00030932520270D280D20930C207EC0913079
:1088B00029F49093042090930B2077C0911175C0F8
:1088C0008091052090910620A0910720B09108206A
:1088D0008F3F9F4FAF4FBF4F59F4C201A0E0B0E0B0
:1088E0008093052090930620A0930720B093082042
:1088F000812C282D30E08091092090E0880F991F6D
:10890000281739070CF051C0C901885D9F4D2C0113
:10891000FC01628581850E94DE40782E60900C20EB
:10892000F201648583850E94DE40972D980F960D95
:1089300090930C209091212020912220309123208F
:10894000913031F4F901E35FFF4D7082818321C0E2
:10895000482F50E0542F4427470D511D60910520AA
:10896000709106208091072090910820620F731F5C
:10897000811D911D2091242030912520B4E0220FEB
:10898000331FBA95E1F7620F731F811D911D0E947D
:10899000564180912220909123200296809322209C
:1089A00090932320F4E08F0EA4CF80912620909105
:1089B0000C20890F19F010930A207EC08EE20E94CD
:1089C000224140912220509123204F3F510519F020
:1089D00010F010930B2020912120213011F42093CE
:1089E0000B2030910B20313009F05DC04090052004
:1089F0005090062060900720709008208FEF481656
:108A000058066806780609F44EC0609124207091DB
:108A1000252080E090E0E4E0660F771F881F991F13
:108A2000EA95D1F7640D751D861D971D609305208D
:108A3000709306208093072090930820213049F4FA
:108A40002091CF0127FDFCCF8DE090E20E94C2452E
:108A50001BC06115E0E87E078105910518F0309391
:108A60000A202AC00E9458410E945A416091052064
:108A70007091062080910720909108200E945C410F
:108A80000E945A410E945E418AE20E942241C092A5
:108A90000520D0920620E0920720F0920820109244
:108AA00022201092232080910A20811105C08091FC
:108AB0000420882309F488CE80910A20811102C005
:108AC0008BE201C08DE20E942241A8CDDB018F9391
:108AD0009F930E949845BF91AF91A29F800D911DD9
:108AE000A39F900DB29F900D11240895A1E21A2E1C
:108AF000AA1BBB1BFD010DC0AA1FBB1FEE1FFF1F42
:108B0000A217B307E407F50720F0A21BB30BE40B91
:108B1000F50B661F771F881F991F1A9469F76095D8
:108B20007095809590959B01AC01BD01CF01089592
:108B30000E94A345A59F900DB49F900DA49F800D0A
:108B4000911D11240895A29FB001B39FC001A39F5E
:108B5000700D811D1124911DB29F700D811D112476
:108B6000911D089503D0808199270895E0ECF1E0EC
:108B7000378537FDFDCF348538603487FC01E05000
:108B8000F04F0895DC01CB0103C02D910E94CD452B
:108B900041505040D0F70895262FE0ECF1E03785A2
:108BA00037FDFDCF3485377F3487378531FF09C0E6
:108BB00036E3328738ED34BF31E03387378537FD10
:108BC000FDCF33E33287808391831282248325E3B0
:108BD000228728ED31E024BF338701960895F89469
:028BE000FFCFC5
:108BE200EE27FF2719BEDC0143E24093CA0150E899
:108BF2002DE90D901D9020933400E89532965A95F8
:108C0200C1F711240895FC014093CA012DE9209374
:108C12003400E89511243BBF0895FC014093CA013A
:108C22004F935F936F9364E06093A2004CE051E036
:108C3200509348000DE900933400E8954093CD012C
:0E8C4200889511243BBF6F915F914F9108956B
:040000030000800079
:00000001FF
