:020000023000CC
:100000000D94F4800D9408810D9408810D9408815D
:100010000D9408810D9408810D9408810D94088138
:100020000D9408810D9408810D9408810D94088128
:100030000D9408810D9408810D9408810D94088118
:100040000D9408810D9408810D9408810D94088108
:100050000D9408810D9408810D9408810D940881F8
:100060000D9408810D9408810D9408810D940881E8
:100070000D9408810D9408810D9408810D940881D8
:100080000D9408810D9490810D9408810D94088140
:100090000D9408810D9408810D9408810D940881B8
:1000A0000D9408810D9408810D9408810D940881A8
:1000B0000D9408810D9408810D9408810D94088198
:1000C0000D9408810D9408810D9408810D94088188
:1000D0000D9408810D9408810D9408810D94088178
:1000E0000D9408810D9408810D9408810D94088168
:1000F0000D9408810D9408810D9408810D94088158
:100100000D9408810D9408810D9408810D94088147
:100110000D9408810D9408810D9408810D94088137
:100120000D9408810D9408810D9408810D94088127
:100130000D9408810D9408810D9408810D94088117
:100140000D9408810D9408810D9408810D94088107
:100150000D9408810D9408810D9408810D940881F7
:100160000D9408810D9408810D9408810D940881E7
:100170000D9408810D9408810D9408810D940881D7
:100180000D9408810D9408810D9408810D940881C7
:100190000D9408810D9408810D9408810D940881B7
:1001A0000D9408810D9408810D9408810D940881A7
:1001B0000D9408810D9408810D9408810D94088197
:1001C0000D9408810D9408810D9408810D94088187
:1001D0000D9408810D9408810D9408810D94088177
:1001E0000D9408810D94088111241FBECFEFCDBF5F
:1001F000DFE5DEBF01E00CBF20E2A0E0B0E201C01D
:100200001D92AF35B207E1F70F94D1820D94D386DA
:100210000D940080813610F087550895813410F0D8
:1002200087530895803310F08053089580E0089537
:100230001F93CF93DF931F92CDB7DEB769830F94DF
:100240000A81182F6981862F0F940A8190E1199FE6
:10025000800D11240F90DF91CF911F9108959B0184
:10026000AC012F5F3F4F4F4F5F4F60EA76E881E070
:1002700090E00F944A8623E0969587957795679549
:100280002A95D1F7605A7648814091092AE638E1EB
:1002900040E050E00F945A8621503109E0EAFAE03C
:1002A0002683832F806C878313828581887F836078
:1002B00085838CE184830895CF93C82F8D3019F402
:1002C0008AE00F945C818091A10A85FFFCCFC093E6
:1002D000A00ACF9108958091A10A87FFFCCF809159
:1002E000A00A08958F708A3010F0895A01C0805D8D
:1002F0000D945C81CF93C82F82958F700F9472817B
:100300008C2FCF910D947281CF93DF93EC01899163
:10031000882319F00F945C81FACFDF91CF91089573
:100320001F920F920FB60F9211240BB60F928F935C
:10033000AF93BF93EF93FF93E0ECF1E08585837F6C
:10034000858780915C208093480080915D20A0EAA1
:10035000B0E08C9380915B2012968C9380915E200C
:10036000858780915A208FBFFF91EF91BF91AF9108
:100370008F910F900BBE0F900FBE0F901F9018958E
:10038000E0EAF0E08281806498ED94BF8283089572
:10039000E0EAF0E082818F7B98ED94BF828308953C
:1003A000E8E4F0E0808180935C201082E0EAF0E0F5
:1003B000808180935D20828180935B208281887F11
:1003C000846082838FB780935A207894E0ECF1E0C8
:1003D000858580935E200895CF93DF9300D000D071
:1003E000CDB7DEB74D835E8369837A838B839C832D
:1003F0000F94D0814D815E8169817A818B819C814E
:100400002696CDBFDEBFDF91CF910D946F82CF9343
:10041000DF9300D01F92CDB7DEB769837A838B83D9
:100420009C830F94D08169817A818B819C812496F1
:10043000CDBFDEBFDF91CF910D9469820F94D08143
:100440000D94B482CF93DF9300D01F92CDB7DEB767
:1004500069837A838B839C830F94D08169817A81AD
:100460008B819C812496CDBFDEBFDF91CF910D940F
:10047000878208953BB78BBFFB0186913BBF0895F0
:100480003BB78BBFFB01879196913BBF089542E03C
:1004900083C041E081C08093C00188278093C1015F
:1004A0008093C20147E068D0CB0108958093C401D6
:1004B00048E062C08091D00108953BB748E10D94B7
:1004C000E8863BB74AE10D94E8863BB740E20D94DD
:1004D000E8863BB78BBFCB0142E20D94E8863BB781
:1004E0008BBFCB010A0143E20D94E8863BB76BBF9B
:1004F000FA0119BEDC0140E04093CA0150E0879147
:1005000097918D939D935A95D1F73BBF08953BB733
:100510008BBFCB0144E20D94E8863BB78BBFCB0188
:1005200045E20D94E8863BB746E20D94E8863BB77A
:100530008BBFCB014AE20D94E8863BB78BBFCB0162
:100540004CE20D94E8863BB78BBFCB014DE20D9496
:10055000E88648E311C049E30FC028ED209334003A
:1005600021E02093CC0108952091CF0127FDFCCFFD
:1005700022272093CA0108954093CA0128ED31E053
:10058000209334003093CB016091C4017091C50178
:100590008091C60199270895FC014093CA01849176
:1005A0000895CF93DF931F92CDB7DEB70F94C0812C
:1005B000F8941092520085E08093500088E0809378
:1005C00055008091500080618093500080915100CF
:1005D00084FFFCCF38ED34BF84E08093400088E195
:1005E000809392068093930688E08093810621E0B1
:1005F000209300081092010810920208109203083C
:100600001092040885E08093430088EB9BE0809380
:100610000C0490930D04209300041092080410928F
:10062000090434BF20938000109200201092012012
:10063000109202201092032051E18091880682FFDF
:1006400006C08091030481FFF8CF41E001C040E083
:1006500010922008109221088091880682FD05C022
:100660008091030481FFF8CF41E05131C0F4209123
:100670002008309121088091002090910120A091C4
:100680000220B0910320820F931FA11DB11D809302
:10069000002090930120A0930220B093032051509A
:1006A00019F0442351F241E003E0F8EDFF2E11E090
:1006B000413061F510920008109201081092200854
:1006C0001092210810929206109293061092A30A9B
:1006D0001092A40A0093A50A1092A60A1092A70AE3
:1006E0000F94C881109200041CBEF4BE109240000A
:1006F0000000809150008F7E809350001092550032
:10070000109350001CBEE0E0F0E0199580910020AD
:1007100090910120A0910220B0910320E4E0B695D1
:10072000A79597958795EA95D1F7809300209093A8
:100730000120A0930220B09303208FE493EC019753
:10074000F1F700C0000060910020709101208091BD
:100750000220909103200F942F810F946B810F94AE
:100760006B81853509F0A6CF0F946B81853521F417
:100770000F946B81853511F041E09ACF83E60F9499
:100780005C8184E30F945C8185E30F945C8182E655
:100790000F945C8182E30F945C8180E20F945C8112
:1007A00086E70F945C8182E30F945C818EE20F9464
:1007B0005C8189E30F945C8181E50F945C811092E8
:1007C000282048E5342E53E0B52E68EDA62E992456
:1007D0009394CC24CA94DC2C760111E08DE00F9424
:1007E0005C818EE30F945C8181E10F945C8100E079
:1007F0000F946B81E02FF0E0E85DFF4D808385353D
:10080000B9F3833019F43092282003C00F5F8A3087
:1008100079F7E02FF0E0DF01A95DBF4D1C92EA5DA2
:10082000FF4D80818D3009F4108283E10F945C814B
:1008300088E290E20F94848100912820073661F0CD
:1008400020F4053609F444C021C20D3609F440C035
:10085000003709F47FC01AC28BE20F945C818DE0EF
:100860000F945C8181E10F945C81EFE4F3EC3197AC
:10087000F1F700C0000010920008109201081092D9
:10088000200810922108109292061092930610925E
:10089000A30A1092A40AB092A50A1092A60A109276
:1008A000A70A0F94C881109200041CBEA4BE109227
:1008B00040000000809150008F7E80935000109285
:1008C0005500909250001CBEE0E0F0E0199586CFF4
:1008D00060912B2080912A200F941881682E6091BE
:1008E0002D2080912C200F941881712C762C662459
:1008F000680E711C809129208737B9F460912F20F0
:1009000080912E200F941881882E053641F4809115
:10091000CF0187FDFCCF682DC3010F94B086809175
:1009200028208D3611F4F3018082809128208536AD
:1009300029F4C3010F949686082F02C0F3010081A9
:100940008BE20F945C818DE00F945C81802F0F947B
:100950007A8144CF8BE20F945C818DE00F945C81AF
:100960001092212080912920853611F410932120A6
:10097000C0920520D0920620E0920720F092082035
:1009800010922220109223201092242010922520D1
:1009900010920A201092042010920B2081E10F94F3
:1009A0005C8100E00F946B81A02FB0E0A85DBF4D8B
:1009B0008C930F5F8A30B1F783E10F945C81E02F55
:1009C000F0E0E95DFF4D108260912A20809129209E
:1009D0000F941881782E8093092060912C208091AB
:1009E0002B200F941881882E482E512C542C4424EF
:1009F00060912E2080912D200F941881480E511C5B
:100A00006091302080912F200F941881982F80932F
:100A10002720870C880E840C80920C20E72DF0E0B4
:100A2000EE0FFF1FEE5CFF4DDF01119760818C918F
:100A300099830F9418818093262099819230D9F45C
:100A400060913220809131200F94188190E0782EAF
:100A5000662460913420809133200F941881930193
:100A6000280F311D2093242030932520270D280D99
:100A700020930C207EC0913029F490930420909311
:100A80000B2077C0911175C08091052090910620B0
:100A9000A0910720B09108208F3F9F4FAF4FBF4FCD
:100AA00059F4C201A0E0B0E08093052090930620A5
:100AB000A0930720B0930820812C282D30E080914E
:100AC000092090E0880F991F281739070CF051C0B2
:100AD000C901885D9F4D2C01FC01628581850F94C1
:100AE0001881782E60900C20F201648583850F9424
:100AF0001881972D980F960D90930C20909121209E
:100B00002091222030912320913031F4F901E35FCC
:100B1000FF4D7082818321C0482F50E0542F44271D
:100B2000470D511D6091052070910620809107208E
:100B300090910820620F731F811D911D2091242028
:100B400030912520B4E0220F331FBA95E1F7620FF0
:100B5000731F811D911D0F94EC8180912220909133
:100B6000232002968093222090932320F4E08F0E7E
:100B7000A4CF8091262090910C20890F19F010931A
:100B80000A207EC08EE20F945C8140912220509119
:100B90002320411522E0520710F010930B202091E2
:100BA0002120213011F420930B2030910B20313083
:100BB00009F05DC04090052050900620609007200D
:100BC000709008208FEF481658066806780609F4DA
:100BD0004EC0609124207091252080E090E0E4E0F8
:100BE000660F771F881F991FEA95D1F7640D751D51
:100BF000861D971D60930520709306208093072023
:100C000090930820213049F42091CF0127FDFCCF9B
:100C10008DE090E20F94A6861BC061157105E3E09C
:100C20008E07910518F030930A202AC00F9407828E
:100C30000F941E82609105207091062080910720FC
:100C4000909108200F9422820F941E820F94398273
:100C50008AE20F945C81C0920520D0920620E09237
:100C60000720F092082010922220109223208091D9
:100C70000A20811105C080910420882309F488CEC0
:100C800080910A20811102C08BE201C08DE20F9495
:100C90005C81A4CDDB018F939F930F947C86BF91E1
:100CA000AF91A29F800D911DA39F900DB29F900DBB
:100CB00011240895A1E21A2EAA1BBB1BFD010DC031
:100CC000AA1FBB1FEE1FFF1FA217B307E407F507FC
:100CD00020F0A21BB30BE40BF50B661F771F881FD8
:100CE000991F1A9469F760957095809590959B016E
:100CF000AC01BD01CF0108950F948786A59F900D8B
:100D0000B49F900DA49F800D911D11240895A29F62
:100D1000B001B39FC001A39F700D811D1124911DCF
:100D2000B29F700D811D1124911D089503D0808103
:100D300099270895E0ECF1E0378537FDFDCF348544
:100D400038603487FC01E050F04F0895DC01CB019E
:100D500003C02D910F94B18641505040D0F70895B3
:100D6000262FE0ECF1E0378537FDFDCF3485377F66
:100D70003487378531FF09C036E3328738ED34BF19
:100D800031E03387378537FDFDCF33E3328780830A
:100D900091831282248325E3228728ED31E024BF4A
:0A0DA000338701960895F894FFCF01
:100DAA00EE27FF2719BEDC0143E24093CA0150E057
:100DBA002DE90D901D9020933400E89532965A95AE
:100DCA00C1F7112408950D94F486FC014093CA01D9
:100DDA002DE920933400E89511243BBF0895FC01C6
:100DEA004093CA014F935F936F9364E06093A200AC
:100DFA004CE051E0509348000DE900933400E89527
:100E0A004093CD01889511243BBF6F915F914F911B
:020E1A00089539
:0400000330000000C9
:00000001FF
