:104000000C94BC200C94CE200C94CE200C94CE208A
:104010000C94CE200C94CE200C94CE200C94CE2068
:104020000C94CE200C94CE200C94CE200C94CE2058
:104030000C94CE200C94CE200C94CE200C94CE2048
:104040000C94CE200C94CE200C94CE200C94CE2038
:104050000C94CE200C94CE200C94CE200C94CE2028
:104060000C94CE200C94CE200C94CE200C94CE2018
:104070000C94CE200C94CE200C94CE200C94CE2008
:104080000C94CE200C94CE200C94CE200C94CE20F8
:104090000C94CE200C94CE200C94CE200C94CE20E8
:1040A0000C94CE200C94CE200C94CE200C94CE20D8
:1040B0000C94CE200C94CE200C94CE200C94CE20C8
:1040C0000C94CE200C94CE200C94CE200C94CE20B8
:1040D0000C94CE200C94CE200C94CE200C94CE20A8
:1040E0000C94CE200C94CE200C94CE200C94CE2098
:1040F0000C94CE200C94CE200C94CE200C94CE2088
:104100000C94CE200C94CE200C94CE200C94CE2077
:104110000C94CE200C94CE200C94CE200C94CE2067
:104120000C94CE200C94CE200C94CE200C94CE2057
:104130000C94CE200C94CE200C94CE200C94CE2047
:104140000C94CE200C94CE200C94CE200C94CE2037
:104150000C94CE200C94CE200C94CE200C94CE2027
:104160000C94CE200C94CE200C94CE200C94CE2017
:104170000C94CE200C94CE2011241FBECFEFCDBFC7
:10418000D7E2DEBF20E2A0E0B0E201C01D92AA3576
:10419000B207E1F70E94F6210C941D260C94002032
:1041A000813610F087550895813410F087530895B3
:1041B000803310F08053089580E008951F93CF93CB
:1041C000DF931F92CDB7DEB769830E94D020182FEE
:1041D0006981862F0E94D02090E1199F800D1124C3
:1041E0000F90DF91CF911F9108959B01AC012F5F3C
:1041F0003F4F4F4F5F4F60EA76E881E090E00E94CA
:10420000942523E096958795779567952A95D1F71C
:10421000605A7648814091092AE638E140E050E052
:104220000E94A42521503109E0EAF9E02683832F7A
:10423000806C878313828581887F836085838CE18E
:1042400084830895CF93C82F8D3019F48AE00E949B
:1042500022218091A10985FFFCCFC093A009CF91B5
:1042600008958091A10987FFFCCF8091A00908954E
:104270008F708A3010F0895A01C0805D0C94222121
:10428000CF93C82F82958F700E9438218C2FCF91A9
:104290000C943821CF93DF93EC018991882319F096
:1042A0000E942221FACFDF91CF9108950C9494219E
:1042B0000C948E210C94D9210C94AC2108953BB719
:1042C0008BBFFB0186913BBF08953BB78BBFFB01C2
:1042D000879196913BBF089542E083C041E081C041
:1042E0008093C00188278093C1018093C20147E079
:1042F00068D0CB0108958093C40148E062C08091EA
:10430000D00108953BB748E10C9432263BB74AE10F
:104310000C9432263BB740E20C9432263BB78BBF5D
:10432000CB0142E20C9432263BB78BBFCB010A0192
:1043300043E20C9432263BB76BBFFA0119BEDC0195
:1043400040E04093CA0150E0879197918D939D93EF
:104350005A95D1F73BBF08953BB78BBFCB0144E2E1
:104360000C9432263BB78BBFCB0145E20C9432262E
:104370003BB746E20C9432263BB78BBFCB014AE2F7
:104380000C9432263BB78BBFCB014CE20C94322607
:104390003BB78BBFCB014DE20C94322648E311C0F2
:1043A00049E30FC028ED2093340021E02093CC0195
:1043B00008952091CF0127FDFCCF22272093CA0129
:1043C00008954093CA0128ED31E0209334003093E2
:1043D000CB016091C4017091C5018091C6019927FC
:1043E0000895FC014093CA0184910895CF93DF930F
:1043F0001F92CDB7DEB7F8941092520085E08093FB
:10440000500088E080935500809150008061809337
:1044100050008091510084FFFCCF38ED34BF84E020
:104420008093400088E1809372068093730688E051
:104430008093610682E0809361068093660621E0A6
:1044400020930008109201081092020810920308AD
:104450001092040885E08093430088EB9BE08093F2
:104460000C0490930D042093000410920804109201
:10447000090434BF20938000109200201092012084
:10448000109202201092032051E18091680682FF71
:1044900006C08091030481FFF8CF41E001C040E0F5
:1044A00010922008109221088091680682FD05C0B4
:1044B0008091030481FFF8CF41E05131C0F4209195
:1044C0002008309121088091002090910120A09136
:1044D0000220B0910320820F931FA11DB11D809374
:1044E000002090930120A0930220B093032051500C
:1044F00019F0442351F241E003E038EDF32E11E0CE
:10450000413049F5109200081092010810922008DD
:104510001092210810927206109273061092A3094D
:104520001092A4090093A5091092A6091092A70958
:10453000109200041CBEF4BE109240000000809156
:1045400050008F7E809350001092550010935000C1
:10455000E0E0F0E009958091002090910120A09189
:104560000220B091032024E0B695A79597958795F2
:104570002A95D1F78093002090930120A0930220E8
:10458000B09303208FE493EC0197F1F700C0000093
:104590006091002070910120809102209091032071
:1045A0000E94F5200E9431210E943121853509F0B9
:1045B000A9CF0E943121853521F40E943121853512
:1045C00011F041E09DCF0E9431218535E1F382E079
:1045D0008093650683E60E94222184E30E942221C3
:1045E00085E30E94222182E60E94222182E30E942A
:1045F000222180E20E94222186E70E94222182E37A
:104600000E9422218EE20E94222189E30E9422211F
:1046100081E50E9422211092282012E068E5B62E42
:1046200073E0A72EE8ED9E2E88248394CC24CA94B0
:10463000DC2C760101E0109365068DE00E942221BA
:104640008EE30E94222181E10E9422218091A10912
:1046500080648093A1098091A10986FFFCCF10930B
:104660006606712C0E943121E72DF0E0E85DFF4DD8
:1046700080838535B9F3833019F4B092282003C0C4
:1046800073948A3079F7E72DF0E0DF01A95DBF4D23
:104690001C92EA5DFF4D80818D3009F410821093E9
:1046A000650683E10E94222188E290E20E944A216D
:1046B00090912820973661F020F4953609F443C094
:1046C0002FC29D3609F43FC0903709F480C028C23C
:1046D0008BE20E9422218DE00E94222181E10E9432
:1046E0002221EFE4F3EC3197F1F700C000001092C3
:1046F00000081092010810922008109221081093CF
:10470000660610927206109273061092A309109218
:10471000A409A092A5091092A6091092A7091092C7
:1047200000041CBE94BE1092400000008091500016
:104730008F7E809350001092550080925000E0E0F0
:10474000F0E0099578CF60912B2080912A20998301
:104750000E94DE20482E60912D2080912C200E9406
:10476000DE20512C542C4424480E511C80912920C9
:104770008737C1F460912F2080912E200E94DE2087
:10478000782E9981953641F48091CF0187FDFCCF39
:10479000672DC2010E94FA25809128208D3611F4E0
:1047A000F201708280912820853629F4C2010E948E
:1047B000E025782E02C0F20170808BE20E94222157
:1047C0008DE00E942221872D0E94402134CF8BE270
:1047D0000E9422218DE00E942221109221208091AE
:1047E0002920853611F400932120C0920520D09213
:1047F0000620E0920720F0920820109222201092CA
:104800002320109224201092252010920A2010922A
:10481000042010920B2081E10E9422218091A109A5
:1048200080648093A1098091A10986FFFCCF109339
:104830006606712C0E943121A72DB0E0A85DBF4D06
:104840008C9373948A30B1F71093650683E10E94CC
:104850002221E72DF0E0E95DFF4D108260912A20D2
:10486000809129200E94DE20682E8093092060918B
:104870002C2080912B200E94DE20782E482E512C57
:10488000542C442460912E2080912D200E94DE2003
:10489000480E511C6091302080912F200E94DE2014
:1048A000982F80932720760C780E740C70920C2031
:1048B000E62DF0E0EE0FFF1FEE5CFF4DDF011197DC
:1048C00060818C9199830E94DE20809326209981BB
:1048D0009230D9F460913220809131200E94DE2004
:1048E00090E0582E442460913420809133200E941F
:1048F000DE209201280F311D2093242030932520A3
:10490000250D270D20930C207EC0913029F4909323
:10491000042090930B2077C0911175C080910520E1
:1049200090910620A0910720B09108208F3F9F4FC3
:10493000AF4FBF4F59F4C201A0E0B0E08093052013
:1049400090930620A0930720B0930820712C272D68
:1049500030E08091092090E0880F991F28173907CF
:104960000CF051C0C901885D9F4D1C01FC0162859E
:1049700081850E94DE20682E50900C20F101648514
:1049800083850E94DE20962D980F950D90930C2024
:10499000909121202091222030912320913031F4D8
:1049A000F901E35FFF4D6082818321C0482F50E011
:1049B000542F4427460D511D60910520709106200B
:1049C0008091072090910820620F731F811D911D17
:1049D0002091242030912520B4E0220F331FBA9576
:1049E000E1F7620F731F811D911D0E945621809176
:1049F00022209091232002968093222090932320BE
:104A0000F4E07F0EA4CF8091262090910C20890F96
:104A100019F000930A207EC08EE20E94222140916C
:104A20002220509123204F3F510519F010F00093A0
:104A30000B2020912120213011F420930B20309164
:104A40000B20313009F05DC04090052050900620C9
:104A500060900720709008208FEF4816580668066F
:104A6000780609F44EC0609124207091252080E0E2
:104A700090E0E4E0660F771F881F991FEA95D1F751
:104A8000640D751D861D971D60930520709306208B
:104A90008093072090930820213049F42091CF0182
:104AA00027FDFCCF8DE090E20E94F0251BC0611530
:104AB000E0E47E078105910518F030930A202AC0B2
:104AC0000E9458210E945A21609105207091062071
:104AD00080910720909108200E945C210E945A2119
:104AE0000E945E218AE20E942221C0920520D0927B
:104AF0000620E0920720F0920820109222201092C7
:104B0000232080910A20811105C0809104208823F0
:104B100009F47BCE80910A20811102C08BE201C092
:104B20008DE20E94222187CDDB018F939F930E940B
:104B3000C625BF91AF91A29F800D911DA39F900D9F
:104B4000B29F900D11240895A1E21A2EAA1BBB1B3F
:104B5000FD010DC0AA1FBB1FEE1FFF1FA217B30749
:104B6000E407F50720F0A21BB30BE40BF50B661F5F
:104B7000771F881F991F1A9469F760957095809523
:104B800090959B01AC01BD01CF0108950E94D125F4
:104B9000A59F900DB49F900DA49F800D911D112491
:104BA0000895A29FB001B39FC001A39F700D811D06
:104BB0001124911DB29F700D811D1124911D089526
:104BC00003D0808199270895E0ECF1E0378537FD27
:104BD000FDCF348538603487FC01E050F04F0895F4
:104BE000DC01CB0103C02D910E94FB2541505040B8
:104BF000D0F70895262FE0ECF1E0378537FDFDCFA3
:104C00003485377F3487378531FF09C036E33287F3
:104C100038ED34BF31E03387378537FDFDCF33E3DF
:104C20003287808391831282248325E3228728EDB3
:0E4C300031E024BF338701960895F894FFCF3A
:104C3E00EE27FF2719BEDC0143E24093CA0150E87C
:104C4E002DE90D901D9020933400E89532965A95DB
:104C5E00C1F711240895FC014093CA012DE9209358
:104C6E003400E89511243BBF0895FC014093CA011E
:104C7E004F935F936F9364E06093A2004CE051E01A
:104C8E00509348000DE900933400E8954093CD0110
:0E4C9E00889511243BBF6F915F914F9108954F
:0400000300004000B9
:00000001FF
