:1078000021E0A0E0B1E001C01D92A835B207E1F788
:10781000CFEFD8E0DEBFCDBF11241FBE6BC08136D5
:1078200010F087550895813410F087530895803300
:1078300010F08053089580E008951F93CF93DF9355
:107840001F92CDB7DEB769830E940F3C182F698164
:10785000862F0E940F3C90E1199F800D11240F90FC
:10786000DF91CF911F91089524E0969587952A95F1
:10787000E1F79093C5008093C4001092C00088E1A6
:107880008093C10086E08093C2000895CF93C82FF3
:107890008D3019F48AE00E94463C8091C00085FF3B
:1078A000FCCFC093C600CF9108958091C00087FFA0
:1078B000FCCF8091C60008958F708A3010F0895AED
:1078C00001C0805D0C94463CCF93C82F82958F7089
:1078D0000E945C3C8C2FCF910C945C3CCF93DF9347
:1078E000EC018991882319F00E94463CFACFDF9180
:1078F000CF910895CF93DF9300D000D0CDB7DEB7FE
:10790000F8948EB183608EB96A9A72981092800052
:1079100081E08093810084B7877F84BF809160007D
:1079200088618093600010926000109201011092B3
:10793000000180E090E0DC0171E1609B0CC00196E9
:10794000A11DB11D81302AE6920728E1A207B105E9
:10795000A0F361E001C060E0109285001092840005
:1079600060990BC00196A11DB11D81303AE69307C5
:1079700038E1A307B105A0F361E0713170F44091E3
:107980008400509185002091000130910101240F65
:10799000351F3093010120930001715019F06623C7
:1079A00061F261E016E0E12CF12C613099F4109263
:1079B000810010928500109284008EB18C7F8EB968
:1079C0001092C5001092C4001092C1001093C20022
:1079D000F7010995809100019091010144E096958D
:1079E00087954A95E1F790930101809300018FE418
:1079F00093EC0197F1F700C0000080910001909195
:107A000001010E94343C0E94553C0E94553C853542
:107A100071F60E94553C853521F40E94553C853510
:107A200011F061E0C2CF0E94553C8535E1F3729AB6
:107A300083E60E94463C84E30E94463C85E30E9424
:107A4000463C82E60E94463C82E30E94463C80E23D
:107A50000E94463C86E70E94463C82E30E94463CE8
:107A60008EE20E94463C89E30E94463C81E50E94EA
:107A7000463C10922601A12CB12CCC24CA94DC2CBB
:107A8000760155245394729A8DE00E94463C8EE311
:107A90000E94463C81E10E94463C8091C000806487
:107AA0008093C0008091C00086FFFCCF729810E0E8
:107AB0000E94553CE12FF0E0EA5DFE4F8083853562
:107AC000B9F3833021F498E59093260103C01F5F3A
:107AD0008A3071F7E12FF0E0DF01AB5DBE4F1C9201
:107AE000EC5DFE4F80818D3009F41082729A83E143
:107AF0000E94463C86E291E00E946E3C1091260175
:107B0000173651F018F4153661F115C21D3649F1DA
:107B1000103709F466C00FC28BE20E94463C8DE02C
:107B20000E94463C81E10E94463CEFE4F3EC319731
:107B3000F1F700C0000010928100109285001092B1
:107B4000840072988EB18C7F8EB91092C50010920D
:107B5000C4001092C100F6E0F093C200F50109954F
:107B600092CF60912901809128010E941D3C882EAE
:107B700060912B0180912A010E941D3C912C982C30
:107B80008824880E911C809127018737A9F4609181
:107B90002D0180912C010E941D3C082F153631F4D7
:107BA000F999FECF602FC4010E94B13F8091260158
:107BB0008D3611F4F401008380912601853629F475
:107BC000C4010E949F3F182F02C0F40110818BE274
:107BD0000E94463C8DE00E94463C812F0E94643CFE
:107BE00052CF8BE20E94463C8DE00E94463C1092B0
:107BF0001F0180912701853611F450921F01C09218
:107C00000301D0920401E0920501F0920601109266
:107C10002101109220011092230110922201109252
:107C20000801109202011092090181E10E94463C74
:107C30008091C00080648093C0008091C00086FF66
:107C4000FCCF729810E00E94553CA12FB0E0AA5DD5
:107C5000BE4F8C931F5F8A30B1F7729A83E10E9406
:107C6000463CE12FF0E0EB5DFE4F10826091280171
:107C7000809127010E941D3C982E809307016091FE
:107C80002A01809129010E941D3C182F682E712C19
:107C9000762C662460912C0180912B010E941D3C62
:107CA000680E711C60912E0180912D010E941D3C77
:107CB000082F80932501190D180F160D10930A0136
:107CC000A92DB0E01596AA0FBB1F4D01FAE08F1A3F
:107CD0009108AA5DBE4FF401EA5DFE4F6C9181856B
:107CE0000E941D3C482E809324010230E1F46091F3
:107CF000300180912F010E941D3C90E0982E882435
:107D000060913201809131010E941D3C9401280F45
:107D1000311DC9013093230120932201890D810F68
:107D200080930A017EC0013029F400930201009380
:107D3000090177C0011175C0809103019091040180
:107D4000A0910501B09106018F3F9F4FAF4FBF4FEC
:107D500059F4C301A0E0B0E08093030190930401C3
:107D6000A0930501B093060150911F01609022017C
:107D70007090230114E0660C771C1A95E1F780914E
:107D8000030190910401680E791E30900A01209140
:107D90002001309121013C832B8390E0092F10E0DA
:107DA00008151905B4F50A5D1E4FF8016285818535
:107DB0005A8399830E941D3C282EF801648583858F
:107DC0000E941D3C622D680F630D5A8199815130CC
:107DD00039F4EB81FC81E55FFE4F2082818310C086
:107DE000282F30E0322F2227220D311DEB81FC811C
:107DF000E60DF71D81E0090180935700E8951124F5
:107E00009C5F2B813C812E5F3F4F3C832B83362E22
:107E1000C5CF2B813C8130932101209320013092EA
:107E20000A0180910A01840D19F0509208017DC069
:107E30008EE20E94463C4091200150912101403841
:107E4000510510F050920901E0911F01E13011F449
:107E5000E0930901F0910901F13009F05DC0009152
:107E600003011091040120910501309106010F3F9B
:107E70008FEF18072807380709F44EC060912201D8
:107E80007091230180E090E0A4E0660F771F881FC7
:107E9000991FAA95D1F7600F711F821F931F6093DE
:107EA0000301709304018093050190930601E13072
:107EB00039F4F999FECF8BE091E00E94A73F1DC0F5
:107EC0006115E8E77E078105910518F0F093080138
:107ED0002CC023E0FB0120935700E89507B600FC77
:107EE000FDCF25E0FB0120935700E89507B600FC85
:107EF000FDCF81E180935700E8958AE20E94463CDD
:107F0000C0920301D0920401E0920501F0920601B3
:107F1000109221011092200180910801811105C069
:107F200080910201882309F47ACE809108018111A1
:107F300002C08BE201C08DE20E94463CA4CDF999BB
:107F4000FECF92BD81BDF89A992780B50895DC01D6
:107F5000CB0103C02D910E94B23F41505040D0F759
:107F60000895262FF999FECF92BD81BD20BD0FB691
:0C7F7000F894FA9AF99A0FBE0196089551
:040000030000780081
:00000001FF
