:10F8000022E0A0E0B2E001C01D92A835B207E1F706
:10F81000CFEFD1E2DEBFCDBF11241FBE6BC081365A
:10F8200010F087550895813410F087530895803380
:10F8300010F08053089580E008951F93CF93DF93D5
:10F840001F92CDB7DEB769830E940F7C182F6981A4
:10F85000862F0E940F7C90E1199F800D11240F903C
:10F86000DF91CF911F91089524E0969587952A9571
:10F87000E1F790933501809334011092300188E1D3
:10F880008093310186E0809332010895CF93C82F91
:10F890008D3019F48AE00E94467C8091300185FF0A
:10F8A000FCCFC0933601CF9108958091300187FF3E
:10F8B000FCCF8091360108958F708A3010F0895AFC
:10F8C00001C0805D0C94467CCF93C82F82958F70C9
:10F8D0000E945C7C8C2FCF910C945C7CCF93DF9347
:10F8E000EC018991882319F00E94467CFACFDF91C0
:10F8F000CF910895CF93DF9300D000D0CDB7DEB77E
:10F90000F894809105018360809305011092800036
:10F9100081E08093810084B7877F84BF80916000FD
:10F9200088618093600086E48093600010920102F9
:10F930001092000251E18091030180FF06C0809186
:10F94000600087FFF8CF41E001C040E010928500E1
:10F95000109284008091030180FD05C080916000B9
:10F9600087FFF8CF41E0513170F42091840030914D
:10F9700085008091000290910102820F931F909365
:10F98000010280930002515019F04423A1F241E09A
:10F99000809160008861809360001092600016E0A2
:10F9A000E12CF12C4130A9F41092810010928500D5
:10F9B00010928400809105018C7F80930501109244
:10F9C0003501109234011092310110933201F70188
:10F9D0000995809100029091010244E096958795E7
:10F9E0004A95E1F790930102809300028FE493EC33
:10F9F0000197F1F700C00000809100029091010290
:10FA00000E94347C0E94557C0E94557C853561F6AD
:10FA10000E94557C853521F40E94557C853511F076
:10FA200041E0C0CF83E60E94467C84E30E94467C8E
:10FA300085E30E94467C82E60E94467C82E30E9427
:10FA4000467C80E20E94467C86E70E94467C82E3F8
:10FA50000E94467C8EE20E94467C89E30E94467C9E
:10FA600081E50E94467C10922602A12CB12CCC2468
:10FA7000CA94DC2C7601552453948DE00E94467C78
:10FA80008EE30E94467C81E10E94467C10E00E9449
:10FA9000557CE12FF0E0EA5DFD4F80838535B9F3B9
:10FAA000833021F498E59093260203C01F5F8A30CB
:10FAB00071F7E12FF0E0DF01AB5DBD4F1C92EC5D13
:10FAC000FD4F80818D3009F4108283E10E94467CD5
:10FAD00086E292E00E946E7C10912602173651F069
:10FAE00018F4153669F10CC21D3651F1103709F4BE
:10FAF00067C006C28BE20E94467C8DE00E94467C75
:10FB000081E10E94467CEFE4F3EC3197F1F700C00D
:10FB10000000109281001092850010928400809164
:10FB200005018C7F809305011092350110923401FC
:10FB300010923101F6E0F0933201F50109959DCF65
:10FB400060912902809128020E941D7C882E60917C
:10FB50002B0280912A020E941D7C912C982C8824D3
:10FB6000880E911C809127028737A9F460912D029D
:10FB700080912C020E941D7C082F153631F4F999D2
:10FB8000FECF602FC4010E94967F809126028D36A1
:10FB900011F4F401008380912602853629F4C40112
:10FBA0000E94847F182F02C0F40110818BE20E9412
:10FBB000467C8DE00E94467C812F0E94647C5DCF54
:10FBC0008BE20E94467C8DE00E94467C10921F02D0
:10FBD00080912702853611F450921F02C0920302D1
:10FBE000D0920402E0920502F092060210922102E5
:10FBF0001092200210922302109222021092080208
:10FC0000109202021092090281E10E94467C10E0EB
:10FC10000E94557CA12FB0E0AA5DBD4F8C931F5F61
:10FC20008A30B1F783E10E94467CE12FF0E0EB5D82
:10FC3000FD4F108260912802809127020E941D7C56
:10FC4000982E8093070260912A02809129020E94D7
:10FC50001D7C182F682E712C762C662460912C0246
:10FC600080912B020E941D7C680E711C60912E02F7
:10FC700080912D020E941D7C082F80932502190D72
:10FC8000180F160D10930A02A92DB0E01596AA0FB1
:10FC9000BB1F4D01FAE08F1A9108AA5DBD4FF40118
:10FCA000EA5DFD4F6C9181850E941D7C482E8093FA
:10FCB00024020230E1F46091300280912F020E9410
:10FCC0001D7C90E0982E8824609132028091310250
:10FCD0000E941D7C9401280F311DC901309323021D
:10FCE00020932202890D810F80930A027EC0013089
:10FCF00029F4009302020093090277C0011175C034
:10FD00008091030290910402A0910502B091060235
:10FD10008F3F9F4FAF4FBF4F59F4C301A0E0B0E0FA
:10FD20008093030290930402A0930502B09306020D
:10FD300050911F02609022027090230214E0660C22
:10FD4000771C1A95E1F78091030290910402680EE6
:10FD5000791E30900A0220912002309121023C83CA
:10FD60002B8390E0092F10E008151905B4F50A5D02
:10FD70001D4FF801628581855A8399830E941D7CFD
:10FD8000282EF801648583850E941D7C622D680FF2
:10FD9000630D5A819981513039F4EB81FC81E55F23
:10FDA000FD4F2082818310C0282F30E0322F222780
:10FDB000220D311DEB81FC81E60DF71D81E009016B
:10FDC00080935700E89511249C5F2B813C812E5F26
:10FDD0003F4F3C832B83362EC5CF2B813C81309304
:10FDE00021022093200230920A0280910A02840D9F
:10FDF00019F0509208027EC08EE20E94467C40912B
:10FE00002002509121024F3F510519F010F05092FD
:10FE10000902E0911F02E13011F4E0930902F09130
:10FE20000902F13009F05DC0009103021091040253
:10FE300020910502309106020F3F8FEF1807280727
:10FE4000380709F44EC0609122027091230280E0CD
:10FE500090E0A4E0660F771F881F991FAA95D1F73D
:10FE6000600F711F821F931F60930302709304023F
:10FE70008093050290930602E13039F4F999FECFA0
:10FE80008BE092E00E948C7F1DC06115E8EF7E0739
:10FE90008105910518F0F09308022CC023E0FB01C6
:10FEA00020935700E89507B600FCFDCF25E0FB0145
:10FEB00020935700E89507B600FCFDCF81E18093C1
:10FEC0005700E8958AE20E94467CC0920302D092D5
:10FED0000402E0920502F0920602109221021092B2
:10FEE000200280910802811105C0809102028823BE
:10FEF00009F484CE80910802811102C08BE201C016
:10FF00008DE20E94467CB9CDF999FECF92BD81BDAC
:10FF1000F89A992780B50895DC01CB0103C02D9193
:10FF20000E94977F41505040D0F70895262FF999AD
:10FF3000FECF1FBA92BD81BD20BD0FB6F894FA9ACC
:08FF4000F99A0FBE0196089525
:040000030000F80001
:00000001FF
